{
  "_format": "hh3-artifact-1",
  "contractName": "IntelligentOracle",
  "sourceName": "contracts/IntelligentOracle.sol",
  "abi": [
    {
      "inputs": [],
      "stateMutability": "nonpayable",
      "type": "constructor"
    },
    {
      "anonymous": false,
      "inputs": [
        {
          "indexed": true,
          "internalType": "uint256",
          "name": "tokenId",
          "type": "uint256"
        },
        {
          "indexed": false,
          "internalType": "string",
          "name": "reason",
          "type": "string"
        },
        {
          "indexed": false,
          "internalType": "bytes32",
          "name": "newHash",
          "type": "bytes32"
        },
        {
          "indexed": false,
          "internalType": "uint256",
          "name": "timestamp",
          "type": "uint256"
        }
      ],
      "name": "MetadataUpdateTriggered",
      "type": "event"
    },
    {
      "inputs": [
        {
          "internalType": "uint256",
          "name": "tokenId",
          "type": "uint256"
        },
        {
          "internalType": "enum IntelligentOracle.IntelligenceType",
          "name": "ruleType",
          "type": "uint8"
        },
        {
          "internalType": "string",
          "name": "triggerCondition",
          "type": "string"
        },
        {
          "internalType": "string",
          "name": "newMetadataURI",
          "type": "string"
        },
        {
          "internalType": "bytes32",
          "name": "newMetadataHash",
          "type": "bytes32"
        },
        {
          "internalType": "uint256",
          "name": "cooldownPeriod",
          "type": "uint256"
        }
      ],
      "name": "addIntelligenceRule",
      "outputs": [],
      "stateMutability": "nonpayable",
      "type": "function"
    },
    {
      "inputs": [],
      "name": "admin",
      "outputs": [
        {
          "internalType": "address",
          "name": "",
          "type": "address"
        }
      ],
      "stateMutability": "view",
      "type": "function"
    },
    {
      "inputs": [
        {
          "internalType": "uint256",
          "name": "tokenId",
          "type": "uint256"
        }
      ],
      "name": "checkAndExecuteIntelligence",
      "outputs": [],
      "stateMutability": "nonpayable",
      "type": "function"
    },
    {
      "inputs": [
        {
          "internalType": "string",
          "name": "",
          "type": "string"
        }
      ],
      "name": "externalDataFeeds",
      "outputs": [
        {
          "internalType": "uint256",
          "name": "",
          "type": "uint256"
        }
      ],
      "stateMutability": "view",
      "type": "function"
    },
    {
      "inputs": [
        {
          "internalType": "uint256",
          "name": "tokenId",
          "type": "uint256"
        }
      ],
      "name": "getTokenIntelligenceRules",
      "outputs": [
        {
          "components": [
            {
              "internalType": "enum IntelligentOracle.IntelligenceType",
              "name": "ruleType",
              "type": "uint8"
            },
            {
              "internalType": "uint256",
              "name": "tokenId",
              "type": "uint256"
            },
            {
              "internalType": "string",
              "name": "triggerCondition",
              "type": "string"
            },
            {
              "internalType": "string",
              "name": "newMetadataURI",
              "type": "string"
            },
            {
              "internalType": "bytes32",
              "name": "newMetadataHash",
              "type": "bytes32"
            },
            {
              "internalType": "bool",
              "name": "isActive",
              "type": "bool"
            },
            {
              "internalType": "uint256",
              "name": "lastTriggered",
              "type": "uint256"
            },
            {
              "internalType": "uint256",
              "name": "cooldownPeriod",
              "type": "uint256"
            }
          ],
          "internalType": "struct IntelligentOracle.IntelligenceRule[]",
          "name": "",
          "type": "tuple[]"
        }
      ],
      "stateMutability": "view",
      "type": "function"
    },
    {
      "inputs": [
        {
          "internalType": "uint256",
          "name": "tokenId",
          "type": "uint256"
        },
        {
          "internalType": "uint256",
          "name": "ruleIndex",
          "type": "uint256"
        }
      ],
      "name": "toggleRule",
      "outputs": [],
      "stateMutability": "nonpayable",
      "type": "function"
    },
    {
      "inputs": [
        {
          "internalType": "uint256",
          "name": "",
          "type": "uint256"
        },
        {
          "internalType": "uint256",
          "name": "",
          "type": "uint256"
        }
      ],
      "name": "tokenIntelligenceRules",
      "outputs": [
        {
          "internalType": "enum IntelligentOracle.IntelligenceType",
          "name": "ruleType",
          "type": "uint8"
        },
        {
          "internalType": "uint256",
          "name": "tokenId",
          "type": "uint256"
        },
        {
          "internalType": "string",
          "name": "triggerCondition",
          "type": "string"
        },
        {
          "internalType": "string",
          "name": "newMetadataURI",
          "type": "string"
        },
        {
          "internalType": "bytes32",
          "name": "newMetadataHash",
          "type": "bytes32"
        },
        {
          "internalType": "bool",
          "name": "isActive",
          "type": "bool"
        },
        {
          "internalType": "uint256",
          "name": "lastTriggered",
          "type": "uint256"
        },
        {
          "internalType": "uint256",
          "name": "cooldownPeriod",
          "type": "uint256"
        }
      ],
      "stateMutability": "view",
      "type": "function"
    },
    {
      "inputs": [
        {
          "internalType": "string",
          "name": "feedName",
          "type": "string"
        },
        {
          "internalType": "uint256",
          "name": "value",
          "type": "uint256"
        }
      ],
      "name": "updateExternalData",
      "outputs": [],
      "stateMutability": "nonpayable",
      "type": "function"
    },
    {
      "inputs": [
        {
          "internalType": "bytes",
          "name": "proof",
          "type": "bytes"
        }
      ],
      "name": "verifyProof",
      "outputs": [
        {
          "internalType": "bool",
          "name": "",
          "type": "bool"
        }
      ],
      "stateMutability": "view",
      "type": "function"
    }
  ],
  "bytecode": "0x608060405234801561000f575f80fd5b50600280546001600160a01b031916331790556113918061002f5f395ff3fe608060405234801561000f575f80fd5b5060043610610090575f3560e01c8063e127fcae11610063578063e127fcae14610108578063e63aae5014610141578063eead30ce14610154578063f851a4401461017b578063fbd6b2a6146101a6575f80fd5b8063499580b01461009457806355c265fe146100bd578063a662a09d146100e0578063b6f291f3146100f5575b5f80fd5b6100a76100a2366004610cc7565b6101b9565b6040516100b49190610d5f565b60405180910390f35b6100d06100cb366004610e72565b6103ab565b60405190151581526020016100b4565b6100f36100ee366004610eb1565b6103b4565b005b6100f3610103366004610ef9565b61040f565b610133610116366004610f2d565b805160208183018101805160018252928201919093012091525481565b6040519081526020016100b4565b6100f361014f366004610cc7565b61050c565b610167610162366004610ef9565b6105a2565b6040516100b4989796959493929190610fd8565b60025461018e906001600160a01b031681565b6040516001600160a01b0390911681526020016100b4565b6100f36101b436600461103a565b610714565b5f81815260208181526040808320805482518185028101850190935280835260609492939192909184015b828210156103a0575f84815260209020604080516101008101909152600884029091018054829060ff16600481111561021f5761021f610cde565b600481111561023057610230610cde565b81526020016001820154815260200160028201805461024e906110d1565b80601f016020809104026020016040519081016040528092919081815260200182805461027a906110d1565b80156102c55780601f1061029c576101008083540402835291602001916102c5565b820191905f5260205f20905b8154815290600101906020018083116102a857829003601f168201915b505050505081526020016003820180546102de906110d1565b80601f016020809104026020016040519081016040528092919081815260200182805461030a906110d1565b80156103555780601f1061032c57610100808354040283529160200191610355565b820191905f5260205f20905b81548152906001019060200180831161033857829003601f168201915b50505091835250506004820154602080830191909152600583015460ff16151560408301526006830154606083015260079092015460809091015290825260019290920191016101e4565b505050509050919050565b60015b92915050565b6002546001600160a01b031633146103e75760405162461bcd60e51b81526004016103de90611109565b60405180910390fd5b80600184846040516103fa929190611140565b90815260405190819003602001902055505050565b6002546001600160a01b031633146104395760405162461bcd60e51b81526004016103de90611109565b5f82815260208190526040902054811061048a5760405162461bcd60e51b8152602060048201526012602482015271092dcecc2d8d2c840e4ead8ca40d2dcc8caf60731b60448201526064016103de565b5f8281526020819052604090208054829081106104a9576104a961114f565b905f5260205f2090600802016005015f9054906101000a900460ff16155f808481526020019081526020015f2082815481106104e7576104e761114f565b5f9182526020909120600890910201600501805460ff19169115159190911790555050565b5f818152602081905260408120905b815481101561059d575f8282815481106105375761053761114f565b5f9182526020909120600890910201600581015490915060ff1661055b5750610595565b8060070154816006015461056f9190611163565b42101561057c5750610595565b610585816108b5565b156105935761059381610b7c565b505b60010161051b565b505050565b5f602052815f5260405f2081815481106105ba575f80fd5b5f91825260209091206008909102018054600182015460028301805460ff9093169550909350906105ea906110d1565b80601f0160208091040260200160405190810160405280929190818152602001828054610616906110d1565b80156106615780601f1061063857610100808354040283529160200191610661565b820191905f5260205f20905b81548152906001019060200180831161064457829003601f168201915b505050505090806003018054610676906110d1565b80601f01602080910402602001604051908101604052809291908181526020018280546106a2906110d1565b80156106ed5780601f106106c4576101008083540402835291602001916106ed565b820191905f5260205f20905b8154815290600101906020018083116106d057829003601f168201915b505050506004830154600584015460068501546007909501549394919360ff909116925088565b6002546001600160a01b0316331461073e5760405162461bcd60e51b81526004016103de90611109565b5f60405180610100016040528089600481111561075d5761075d610cde565b81526020018a815260200188888080601f0160208091040260200160405190810160405280939291908181526020018383808284375f92019190915250505090825250604080516020601f8901819004810282018101909252878152918101919088908890819084018382808284375f9201829052509385525050506020808301879052600160408085018290526060850184905260809094018790528d83528282529282208054808501825590835291208351600890920201805493945084939092839160ff19169083600481111561083957610839610cde565b0217905550602082015160018201556040820151600282019061085c90826111cd565b506060820151600382019061087190826111cd565b506080820151600482015560a082015160058201805460ff191691151591909117905560c0820151600682015560e090910151600790910155505050505050505050565b5f80825460ff1660048111156108cd576108cd610cde565b03610965576103ae8260020180546108e4906110d1565b80601f0160208091040260200160405190810160405280929190818152602001828054610910906110d1565b801561095b5780601f106109325761010080835404028352916020019161095b565b820191905f5260205f20905b81548152906001019060200180831161093e57829003601f168201915b5050505050610bcf565b6001825460ff16600481111561097d5761097d610cde565b03610a15576103ae826002018054610994906110d1565b80601f01602080910402602001604051908101604052809291908181526020018280546109c0906110d1565b8015610a0b5780601f106109e257610100808354040283529160200191610a0b565b820191905f5260205f20905b8154815290600101906020018083116109ee57829003601f168201915b5050505050610c3e565b6002825460ff166004811115610a2d57610a2d610cde565b03610ac5576103ae826002018054610a44906110d1565b80601f0160208091040260200160405190810160405280929190818152602001828054610a70906110d1565b8015610abb5780601f10610a9257610100808354040283529160200191610abb565b820191905f5260205f20905b815481529060010190602001808311610a9e57829003601f168201915b5050505050610c7d565b6003825460ff166004811115610add57610add610cde565b03610b75576103ae826002018054610af4906110d1565b80601f0160208091040260200160405190810160405280929190818152602001828054610b20906110d1565b8015610b6b5780601f10610b4257610100808354040283529160200191610b6b565b820191905f5260205f20905b815481529060010190602001808311610b4e57829003601f168201915b5050505050610ca5565b505f919050565b42816006018190555080600101547f1841337af8dbf274e212f04582ea82e27aea13cb2206536e9a31e0ec28c02e6a82600201836004015442604051610bc49392919061128d565b60405180910390a250565b604051646461696c7960d81b60208201525f906025016040516020818303038152906040528051906020012082604051602001610c0c9190611321565b6040516020818303038152906040528051906020012003610b7557610e10610c37620151804261133c565b1092915050565b5f806001604051610c6690703bb2b0ba3432b92fb1b7b73234ba34b7b760791b815260110190565b908152602001604051809103902054119050919050565b5f6103e86001604051610c66906e736f6369616c5f616374697669747960881b8152600f0190565b5f610bb86001604051610c6690686574685f707269636560b81b815260090190565b5f60208284031215610cd7575f80fd5b5035919050565b634e487b7160e01b5f52602160045260245ffd5b60058110610d0e57634e487b7160e01b5f52602160045260245ffd5b9052565b5f5b83811015610d2c578181015183820152602001610d14565b50505f910152565b5f8151808452610d4b816020860160208601610d12565b601f01601f19169290920160200192915050565b5f60208083018184528085518083526040925060408601915060408160051b8701018488015f5b83811015610e1f57603f198984030185528151610100610da7858351610cf2565b8882015189860152878201518189870152610dc482870182610d34565b91505060608083015186830382880152610dde8382610d34565b6080858101519089015260a08086015115159089015260c0808601519089015260e09485015194909701939093525050509386019390860190600101610d86565b509098975050505050505050565b5f8083601f840112610e3d575f80fd5b50813567ffffffffffffffff811115610e54575f80fd5b602083019150836020828501011115610e6b575f80fd5b9250929050565b5f8060208385031215610e83575f80fd5b823567ffffffffffffffff811115610e99575f80fd5b610ea585828601610e2d565b90969095509350505050565b5f805f60408486031215610ec3575f80fd5b833567ffffffffffffffff811115610ed9575f80fd5b610ee586828701610e2d565b909790965060209590950135949350505050565b5f8060408385031215610f0a575f80fd5b50508035926020909101359150565b634e487b7160e01b5f52604160045260245ffd5b5f60208284031215610f3d575f80fd5b813567ffffffffffffffff80821115610f54575f80fd5b818401915084601f830112610f67575f80fd5b813581811115610f7957610f79610f19565b604051601f8201601f19908116603f01168101908382118183101715610fa157610fa1610f19565b81604052828152876020848701011115610fb9575f80fd5b826020860160208301375f928101602001929092525095945050505050565b5f610100610fe6838c610cf2565b896020840152806040840152610ffe8184018a610d34565b905082810360608401526110128189610d34565b6080840197909752505092151560a084015260c083019190915260e090910152949350505050565b5f805f805f805f8060c0898b031215611051575f80fd5b88359750602089013560058110611066575f80fd5b9650604089013567ffffffffffffffff80821115611082575f80fd5b61108e8c838d01610e2d565b909850965060608b01359150808211156110a6575f80fd5b506110b38b828c01610e2d565b999c989b5096999598969760808701359660a0013595509350505050565b600181811c908216806110e557607f821691505b60208210810361110357634e487b7160e01b5f52602260045260245ffd5b50919050565b60208082526018908201527f4f6e6c792061646d696e2063616e2063616c6c20746869730000000000000000604082015260600190565b818382375f9101908152919050565b634e487b7160e01b5f52603260045260245ffd5b808201808211156103ae57634e487b7160e01b5f52601160045260245ffd5b601f82111561059d57805f5260205f20601f840160051c810160208510156111a75750805b601f840160051c820191505b818110156111c6575f81556001016111b3565b5050505050565b815167ffffffffffffffff8111156111e7576111e7610f19565b6111fb816111f584546110d1565b84611182565b602080601f83116001811461122e575f84156112175750858301515b5f19600386901b1c1916600185901b178555611285565b5f85815260208120601f198616915b8281101561125c5788860151825594840194600190910190840161123d565b508582101561127957878501515f19600388901b60f8161c191681555b505060018460011b0185555b505050505050565b606081525f80855461129e816110d1565b806060860152608060018084165f81146112bf57600181146112db5761130a565b60ff1985166080890152608084151560051b890101955061130a565b8a5f526020805f205f5b868110156113005781548b82018701529084019082016112e5565b8a01608001975050505b505050505060208301949094525060400152919050565b5f8251611332818460208701610d12565b9190910192915050565b5f8261135657634e487b7160e01b5f52601260045260245ffd5b50069056fea2646970667358221220df42c712c2d8a90f7d8853d8c67eb7c3bcf7b81c688d8a580f8ead161057b6f164736f6c63430008180033",
  "linkReferences": {},
  "deployedLinkReferences": {},
  "immutableReferences": {},
  "inputSourceName": "project/contracts/IntelligentOracle.sol",
  "buildInfoId": "solc-0_8_24-ab0f40d02aae0ad4567c7f2b26ea9571bb3870df"
}