{
  "_format": "hh3-artifact-1",
  "contractName": "Name0gRegistry",
  "sourceName": "contracts/Name0gRegistry.sol",
  "abi": [
    {
      "inputs": [],
      "stateMutability": "nonpayable",
      "type": "constructor"
    },
    {
      "inputs": [
        {
          "internalType": "address",
          "name": "owner",
          "type": "address"
        }
      ],
      "name": "OwnableInvalidOwner",
      "type": "error"
    },
    {
      "inputs": [
        {
          "internalType": "address",
          "name": "account",
          "type": "address"
        }
      ],
      "name": "OwnableUnauthorizedAccount",
      "type": "error"
    },
    {
      "anonymous": false,
      "inputs": [
        {
          "indexed": true,
          "internalType": "bytes32",
          "name": "node",
          "type": "bytes32"
        },
        {
          "indexed": false,
          "internalType": "address",
          "name": "resolver",
          "type": "address"
        }
      ],
      "name": "NewResolver",
      "type": "event"
    },
    {
      "anonymous": false,
      "inputs": [
        {
          "indexed": true,
          "internalType": "bytes32",
          "name": "node",
          "type": "bytes32"
        },
        {
          "indexed": false,
          "internalType": "uint64",
          "name": "ttl",
          "type": "uint64"
        }
      ],
      "name": "NewTTL",
      "type": "event"
    },
    {
      "anonymous": false,
      "inputs": [
        {
          "indexed": true,
          "internalType": "address",
          "name": "previousOwner",
          "type": "address"
        },
        {
          "indexed": true,
          "internalType": "address",
          "name": "newOwner",
          "type": "address"
        }
      ],
      "name": "OwnershipTransferred",
      "type": "event"
    },
    {
      "anonymous": false,
      "inputs": [
        {
          "indexed": true,
          "internalType": "bytes32",
          "name": "node",
          "type": "bytes32"
        },
        {
          "indexed": false,
          "internalType": "address",
          "name": "owner",
          "type": "address"
        }
      ],
      "name": "Transfer",
      "type": "event"
    },
    {
      "inputs": [
        {
          "internalType": "bytes32",
          "name": "node",
          "type": "bytes32"
        },
        {
          "internalType": "address",
          "name": "owner",
          "type": "address"
        }
      ],
      "name": "bootstrapSetOwner",
      "outputs": [],
      "stateMutability": "nonpayable",
      "type": "function"
    },
    {
      "inputs": [],
      "name": "owner",
      "outputs": [
        {
          "internalType": "address",
          "name": "",
          "type": "address"
        }
      ],
      "stateMutability": "view",
      "type": "function"
    },
    {
      "inputs": [
        {
          "internalType": "bytes32",
          "name": "",
          "type": "bytes32"
        }
      ],
      "name": "owners",
      "outputs": [
        {
          "internalType": "address",
          "name": "",
          "type": "address"
        }
      ],
      "stateMutability": "view",
      "type": "function"
    },
    {
      "inputs": [],
      "name": "renounceOwnership",
      "outputs": [],
      "stateMutability": "nonpayable",
      "type": "function"
    },
    {
      "inputs": [
        {
          "internalType": "bytes32",
          "name": "",
          "type": "bytes32"
        }
      ],
      "name": "resolvers",
      "outputs": [
        {
          "internalType": "address",
          "name": "",
          "type": "address"
        }
      ],
      "stateMutability": "view",
      "type": "function"
    },
    {
      "inputs": [
        {
          "internalType": "bytes32",
          "name": "node",
          "type": "bytes32"
        },
        {
          "internalType": "address",
          "name": "owner",
          "type": "address"
        }
      ],
      "name": "setOwner",
      "outputs": [],
      "stateMutability": "nonpayable",
      "type": "function"
    },
    {
      "inputs": [
        {
          "internalType": "bytes32",
          "name": "node",
          "type": "bytes32"
        },
        {
          "internalType": "address",
          "name": "resolver",
          "type": "address"
        }
      ],
      "name": "setResolver",
      "outputs": [],
      "stateMutability": "nonpayable",
      "type": "function"
    },
    {
      "inputs": [
        {
          "internalType": "bytes32",
          "name": "node",
          "type": "bytes32"
        },
        {
          "internalType": "bytes32",
          "name": "label",
          "type": "bytes32"
        },
        {
          "internalType": "address",
          "name": "owner",
          "type": "address"
        }
      ],
      "name": "setSubnodeOwner",
      "outputs": [
        {
          "internalType": "bytes32",
          "name": "",
          "type": "bytes32"
        }
      ],
      "stateMutability": "nonpayable",
      "type": "function"
    },
    {
      "inputs": [
        {
          "internalType": "bytes32",
          "name": "node",
          "type": "bytes32"
        },
        {
          "internalType": "uint64",
          "name": "ttl",
          "type": "uint64"
        }
      ],
      "name": "setTTL",
      "outputs": [],
      "stateMutability": "nonpayable",
      "type": "function"
    },
    {
      "inputs": [
        {
          "internalType": "address",
          "name": "newOwner",
          "type": "address"
        }
      ],
      "name": "transferOwnership",
      "outputs": [],
      "stateMutability": "nonpayable",
      "type": "function"
    },
    {
      "inputs": [
        {
          "internalType": "bytes32",
          "name": "",
          "type": "bytes32"
        }
      ],
      "name": "ttls",
      "outputs": [
        {
          "internalType": "uint64",
          "name": "",
          "type": "uint64"
        }
      ],
      "stateMutability": "view",
      "type": "function"
    }
  ],
  "bytecode": "0x608060405234801561000f575f80fd5b50338061003557604051631e4fbdf760e01b81525f600482015260240160405180910390fd5b61003e81610044565b50610093565b5f80546001600160a01b038381166001600160a01b0319831681178455604051919092169283917f8be0079c531659141344cd1fd0a4f28419497f9722a3daafe3b4186f6b6457e09190a35050565b6106fb806100a05f395ff3fe608060405234801561000f575f80fd5b50600436106100a6575f3560e01c80638a2004791161006e5780638a200479146101135780638da5cb5b14610155578063c3a7bb9014610179578063d842a24b146101a1578063f2fde38b146101b4578063fb8ad6ff146101c7575f80fd5b806306ab5923146100aa57806314ab9038146100d05780631896f70a146100e55780635b0fc9c3146100f8578063715018a61461010b575b5f80fd5b6100bd6100b83660046105d5565b6101ef565b6040519081526020015b60405180910390f35b6100e36100de366004610607565b6102c0565b005b6100e36100f3366004610641565b61035e565b6100e3610106366004610641565b6103f1565b6100e3610484565b61013c61012136600461066b565b60036020525f908152604090205467ffffffffffffffff1681565b60405167ffffffffffffffff90911681526020016100c7565b5f546001600160a01b03165b6040516001600160a01b0390911681526020016100c7565b61016161018736600461066b565b60026020525f90815260409020546001600160a01b031681565b6100e36101af366004610641565b610497565b6100e36101c2366004610682565b610502565b6101616101d536600461066b565b60016020525f90815260409020546001600160a01b031681565b5f8381526001602052604081205484906001600160a01b0316331461022f5760405162461bcd60e51b8152600401610226906106a2565b60405180910390fd5b60408051602081018790529081018590525f9060600160408051808303601f1901815282825280516020918201205f818152600183529290922080546001600160a01b0319166001600160a01b038916908117909155835290925082917fd4735d920b0f87494915f556dd9b54c8f309026070caea5c737245152564d266910160405180910390a295945050505050565b5f8281526001602052604090205482906001600160a01b031633146102f75760405162461bcd60e51b8152600401610226906106a2565b5f83815260036020908152604091829020805467ffffffffffffffff191667ffffffffffffffff8616908117909155915191825284917f1d4f9bbfc9cab89d66e1a1562f2233ccbf1308cb4f63de2ead5787adddb8fa6891015b60405180910390a2505050565b5f8281526001602052604090205482906001600160a01b031633146103955760405162461bcd60e51b8152600401610226906106a2565b5f8381526002602090815260409182902080546001600160a01b0319166001600160a01b038616908117909155915191825284917f335721b01866dc23fbee8b6b2c7b1e14d6f05c28cd35a2c934239f94095602a09101610351565b5f8281526001602052604090205482906001600160a01b031633146104285760405162461bcd60e51b8152600401610226906106a2565b5f8381526001602090815260409182902080546001600160a01b0319166001600160a01b038616908117909155915191825284917fd4735d920b0f87494915f556dd9b54c8f309026070caea5c737245152564d2669101610351565b61048c61053f565b6104955f61056b565b565b61049f61053f565b5f8281526001602090815260409182902080546001600160a01b0319166001600160a01b038516908117909155915191825283917fd4735d920b0f87494915f556dd9b54c8f309026070caea5c737245152564d266910160405180910390a25050565b61050a61053f565b6001600160a01b03811661053357604051631e4fbdf760e01b81525f6004820152602401610226565b61053c8161056b565b50565b5f546001600160a01b031633146104955760405163118cdaa760e01b8152336004820152602401610226565b5f80546001600160a01b038381166001600160a01b0319831681178455604051919092169283917f8be0079c531659141344cd1fd0a4f28419497f9722a3daafe3b4186f6b6457e09190a35050565b80356001600160a01b03811681146105d0575f80fd5b919050565b5f805f606084860312156105e7575f80fd5b83359250602084013591506105fe604085016105ba565b90509250925092565b5f8060408385031215610618575f80fd5b82359150602083013567ffffffffffffffff81168114610636575f80fd5b809150509250929050565b5f8060408385031215610652575f80fd5b82359150610662602084016105ba565b90509250929050565b5f6020828403121561067b575f80fd5b5035919050565b5f60208284031215610692575f80fd5b61069b826105ba565b9392505050565b6020808252600990820152683737ba1037bbb732b960b91b60408201526060019056fea26469706673582212201ccbdcbea4683801ce2f8234edae7d6a6031321d667ca2964877c33cdd530f4f64736f6c63430008180033",
  "linkReferences": {},
  "deployedLinkReferences": {},
  "immutableReferences": {},
  "inputSourceName": "project/contracts/Name0gRegistry.sol",
  "buildInfoId": "solc-0_8_24-ab0f40d02aae0ad4567c7f2b26ea9571bb3870df"
}