{
  "_format": "hh3-artifact-1",
  "contractName": "Name0gSimpleResolver",
  "sourceName": "contracts/Name0gSimpleResolver.sol",
  "abi": [
    {
      "inputs": [
        {
          "internalType": "contract Name0gRegistry",
          "name": "_registry",
          "type": "address"
        }
      ],
      "stateMutability": "nonpayable",
      "type": "constructor"
    },
    {
      "anonymous": false,
      "inputs": [
        {
          "indexed": true,
          "internalType": "bytes32",
          "name": "node",
          "type": "bytes32"
        },
        {
          "indexed": false,
          "internalType": "address",
          "name": "addr",
          "type": "address"
        }
      ],
      "name": "AddrChanged",
      "type": "event"
    },
    {
      "anonymous": false,
      "inputs": [
        {
          "indexed": true,
          "internalType": "bytes32",
          "name": "node",
          "type": "bytes32"
        },
        {
          "indexed": false,
          "internalType": "bytes",
          "name": "hash",
          "type": "bytes"
        }
      ],
      "name": "ContenthashChanged",
      "type": "event"
    },
    {
      "anonymous": false,
      "inputs": [
        {
          "indexed": true,
          "internalType": "bytes32",
          "name": "node",
          "type": "bytes32"
        },
        {
          "indexed": false,
          "internalType": "string",
          "name": "name",
          "type": "string"
        }
      ],
      "name": "NameChanged",
      "type": "event"
    },
    {
      "anonymous": false,
      "inputs": [
        {
          "indexed": true,
          "internalType": "bytes32",
          "name": "node",
          "type": "bytes32"
        },
        {
          "indexed": true,
          "internalType": "string",
          "name": "key",
          "type": "string"
        },
        {
          "indexed": false,
          "internalType": "string",
          "name": "value",
          "type": "string"
        }
      ],
      "name": "TextChanged",
      "type": "event"
    },
    {
      "inputs": [
        {
          "internalType": "bytes32",
          "name": "node",
          "type": "bytes32"
        }
      ],
      "name": "addr",
      "outputs": [
        {
          "internalType": "address",
          "name": "",
          "type": "address"
        }
      ],
      "stateMutability": "view",
      "type": "function"
    },
    {
      "inputs": [
        {
          "internalType": "bytes32",
          "name": "node",
          "type": "bytes32"
        }
      ],
      "name": "contenthash",
      "outputs": [
        {
          "internalType": "bytes",
          "name": "",
          "type": "bytes"
        }
      ],
      "stateMutability": "view",
      "type": "function"
    },
    {
      "inputs": [
        {
          "internalType": "bytes32",
          "name": "node",
          "type": "bytes32"
        }
      ],
      "name": "name",
      "outputs": [
        {
          "internalType": "string",
          "name": "",
          "type": "string"
        }
      ],
      "stateMutability": "view",
      "type": "function"
    },
    {
      "inputs": [],
      "name": "registry",
      "outputs": [
        {
          "internalType": "contract Name0gRegistry",
          "name": "",
          "type": "address"
        }
      ],
      "stateMutability": "view",
      "type": "function"
    },
    {
      "inputs": [
        {
          "internalType": "bytes32",
          "name": "node",
          "type": "bytes32"
        },
        {
          "internalType": "address",
          "name": "a",
          "type": "address"
        }
      ],
      "name": "setAddr",
      "outputs": [],
      "stateMutability": "nonpayable",
      "type": "function"
    },
    {
      "inputs": [
        {
          "internalType": "bytes32",
          "name": "node",
          "type": "bytes32"
        },
        {
          "internalType": "bytes",
          "name": "hash",
          "type": "bytes"
        }
      ],
      "name": "setContenthash",
      "outputs": [],
      "stateMutability": "nonpayable",
      "type": "function"
    },
    {
      "inputs": [
        {
          "internalType": "bytes32",
          "name": "node",
          "type": "bytes32"
        },
        {
          "internalType": "string",
          "name": "name_",
          "type": "string"
        }
      ],
      "name": "setName",
      "outputs": [],
      "stateMutability": "nonpayable",
      "type": "function"
    },
    {
      "inputs": [
        {
          "internalType": "bytes32",
          "name": "node",
          "type": "bytes32"
        },
        {
          "internalType": "string",
          "name": "key",
          "type": "string"
        },
        {
          "internalType": "string",
          "name": "value",
          "type": "string"
        }
      ],
      "name": "setText",
      "outputs": [],
      "stateMutability": "nonpayable",
      "type": "function"
    },
    {
      "inputs": [
        {
          "internalType": "bytes32",
          "name": "node",
          "type": "bytes32"
        },
        {
          "internalType": "string",
          "name": "key",
          "type": "string"
        }
      ],
      "name": "text",
      "outputs": [
        {
          "internalType": "string",
          "name": "",
          "type": "string"
        }
      ],
      "stateMutability": "view",
      "type": "function"
    }
  ],
  "bytecode": "0x60a060405234801561000f575f80fd5b50604051610bed380380610bed83398101604081905261002e9161003f565b6001600160a01b031660805261006c565b5f6020828403121561004f575f80fd5b81516001600160a01b0381168114610065575f80fd5b9392505050565b608051610b4d6100a05f395f818161014c015281816101b60152818161030901528181610573015261068b0152610b4d5ff3fe608060405234801561000f575f80fd5b5060043610610090575f3560e01c8063691f343111610063578063691f34311461012157806377372213146101345780637b10399914610147578063bc1c58d11461016e578063d5fa2b0014610181575f80fd5b806310f13a8c14610094578063304e6ade146100a95780633b3b57de146100bc57806359d1d43c14610101575b5f80fd5b6100a76100a23660046107c1565b610194565b005b6100a76100b7366004610835565b6102e7565b6100e46100ca36600461087d565b5f908152602081905260409020546001600160a01b031690565b6040516001600160a01b0390911681526020015b60405180910390f35b61011461010f366004610835565b6103f1565b6040516100f891906108d7565b61011461012f36600461087d565b6104b2565b6100a7610142366004610835565b610551565b6100e47f000000000000000000000000000000000000000000000000000000000000000081565b61011461017c36600461087d565b61064d565b6100a761018f366004610907565b610669565b60405163fb8ad6ff60e01b815260048101869052859033906001600160a01b037f0000000000000000000000000000000000000000000000000000000000000000169063fb8ad6ff90602401602060405180830381865afa1580156101fb573d5f803e3d5ffd5b505050506040513d601f19601f8201168201806040525081019061021f9190610935565b6001600160a01b03161461024e5760405162461bcd60e51b815260040161024590610950565b60405180910390fd5b828260015f8981526020019081526020015f208787604051610271929190610973565b9081526020016040518091039020918261028c929190610a1a565b50848460405161029d929190610973565b6040518091039020867fd8c9334b1a9c2f9da342a0a2b32629c1a229b6445dad78947f674b44444a755085856040516102d7929190610afc565b60405180910390a3505050505050565b60405163fb8ad6ff60e01b815260048101849052839033906001600160a01b037f0000000000000000000000000000000000000000000000000000000000000000169063fb8ad6ff90602401602060405180830381865afa15801561034e573d5f803e3d5ffd5b505050506040513d601f19601f820116820180604052508101906103729190610935565b6001600160a01b0316146103985760405162461bcd60e51b815260040161024590610950565b5f8481526002602052604090206103b0838583610a1a565b50837fe379c1624ed7e714cc0937528a32359d69d5281337765313dba4e081b72d757884846040516103e3929190610afc565b60405180910390a250505050565b606060015f8581526020019081526020015f208383604051610414929190610973565b9081526020016040518091039020805461042d90610996565b80601f016020809104026020016040519081016040528092919081815260200182805461045990610996565b80156104a45780601f1061047b576101008083540402835291602001916104a4565b820191905f5260205f20905b81548152906001019060200180831161048757829003601f168201915b505050505090509392505050565b5f8181526003602052604090208054606091906104ce90610996565b80601f01602080910402602001604051908101604052809291908181526020018280546104fa90610996565b80156105455780601f1061051c57610100808354040283529160200191610545565b820191905f5260205f20905b81548152906001019060200180831161052857829003601f168201915b50505050509050919050565b60405163fb8ad6ff60e01b815260048101849052839033906001600160a01b037f0000000000000000000000000000000000000000000000000000000000000000169063fb8ad6ff90602401602060405180830381865afa1580156105b8573d5f803e3d5ffd5b505050506040513d601f19601f820116820180604052508101906105dc9190610935565b6001600160a01b0316146106025760405162461bcd60e51b815260040161024590610950565b5f84815260036020526040902061061a838583610a1a565b50837fb7d29e911041e8d9b843369e890bcb72c9388692ba48b65ac54e7214c4c348f784846040516103e3929190610afc565b5f8181526002602052604090208054606091906104ce90610996565b60405163fb8ad6ff60e01b815260048101839052829033906001600160a01b037f0000000000000000000000000000000000000000000000000000000000000000169063fb8ad6ff90602401602060405180830381865afa1580156106d0573d5f803e3d5ffd5b505050506040513d601f19601f820116820180604052508101906106f49190610935565b6001600160a01b03161461071a5760405162461bcd60e51b815260040161024590610950565b5f838152602081815260409182902080546001600160a01b0319166001600160a01b038616908117909155915191825284917f52d7d861f09ab3d26239d492e8968629f95e9e318cf0b73bfddc441522a15fd2910160405180910390a2505050565b5f8083601f84011261078c575f80fd5b50813567ffffffffffffffff8111156107a3575f80fd5b6020830191508360208285010111156107ba575f80fd5b9250929050565b5f805f805f606086880312156107d5575f80fd5b85359450602086013567ffffffffffffffff808211156107f3575f80fd5b6107ff89838a0161077c565b90965094506040880135915080821115610817575f80fd5b506108248882890161077c565b969995985093965092949392505050565b5f805f60408486031215610847575f80fd5b83359250602084013567ffffffffffffffff811115610864575f80fd5b6108708682870161077c565b9497909650939450505050565b5f6020828403121561088d575f80fd5b5035919050565b5f81518084525f5b818110156108b85760208185018101518683018201520161089c565b505f602082860101526020601f19601f83011685010191505092915050565b602081525f6108e96020830184610894565b9392505050565b6001600160a01b0381168114610904575f80fd5b50565b5f8060408385031215610918575f80fd5b82359150602083013561092a816108f0565b809150509250929050565b5f60208284031215610945575f80fd5b81516108e9816108f0565b6020808252600990820152683737ba1037bbb732b960b91b604082015260600190565b818382375f9101908152919050565b634e487b7160e01b5f52604160045260245ffd5b600181811c908216806109aa57607f821691505b6020821081036109c857634e487b7160e01b5f52602260045260245ffd5b50919050565b601f821115610a1557805f5260205f20601f840160051c810160208510156109f35750805b601f840160051c820191505b81811015610a12575f81556001016109ff565b50505b505050565b67ffffffffffffffff831115610a3257610a32610982565b610a4683610a408354610996565b836109ce565b5f601f841160018114610a77575f8515610a605750838201355b5f19600387901b1c1916600186901b178355610a12565b5f83815260208120601f198716915b82811015610aa65786850135825560209485019460019092019101610a86565b5086821015610ac2575f1960f88860031b161c19848701351681555b505060018560011b0183555050505050565b81835281816020850137505f828201602090810191909152601f909101601f19169091010190565b602081525f610b0f602083018486610ad4565b94935050505056fea2646970667358221220c1bb4c89b937e2460e299c1ec694756d8c79f00e37a8eced8e701c6ab508cd3b64736f6c63430008180033",
  "linkReferences": {},
  "deployedLinkReferences": {},
  "immutableReferences": {
    "8769": [
      {
        "length": 32,
        "start": 332
      },
      {
        "length": 32,
        "start": 438
      },
      {
        "length": 32,
        "start": 777
      },
      {
        "length": 32,
        "start": 1395
      },
      {
        "length": 32,
        "start": 1675
      }
    ]
  },
  "inputSourceName": "project/contracts/Name0gSimpleResolver.sol",
  "buildInfoId": "solc-0_8_24-ab0f40d02aae0ad4567c7f2b26ea9571bb3870df"
}