{
  "_format": "hh3-artifact-1",
  "contractName": "Name0gRegistrar7857",
  "sourceName": "contracts/Name0gRegistrar7857.sol",
  "abi": [
    {
      "inputs": [
        {
          "internalType": "contract Name0gRegistry",
          "name": "_registry",
          "type": "address"
        },
        {
          "internalType": "bytes32",
          "name": "_baseNode",
          "type": "bytes32"
        },
        {
          "internalType": "contract IOracle",
          "name": "_oracle",
          "type": "address"
        }
      ],
      "stateMutability": "nonpayable",
      "type": "constructor"
    },
    {
      "inputs": [
        {
          "internalType": "address",
          "name": "sender",
          "type": "address"
        },
        {
          "internalType": "uint256",
          "name": "tokenId",
          "type": "uint256"
        },
        {
          "internalType": "address",
          "name": "owner",
          "type": "address"
        }
      ],
      "name": "ERC721IncorrectOwner",
      "type": "error"
    },
    {
      "inputs": [
        {
          "internalType": "address",
          "name": "operator",
          "type": "address"
        },
        {
          "internalType": "uint256",
          "name": "tokenId",
          "type": "uint256"
        }
      ],
      "name": "ERC721InsufficientApproval",
      "type": "error"
    },
    {
      "inputs": [
        {
          "internalType": "address",
          "name": "approver",
          "type": "address"
        }
      ],
      "name": "ERC721InvalidApprover",
      "type": "error"
    },
    {
      "inputs": [
        {
          "internalType": "address",
          "name": "operator",
          "type": "address"
        }
      ],
      "name": "ERC721InvalidOperator",
      "type": "error"
    },
    {
      "inputs": [
        {
          "internalType": "address",
          "name": "owner",
          "type": "address"
        }
      ],
      "name": "ERC721InvalidOwner",
      "type": "error"
    },
    {
      "inputs": [
        {
          "internalType": "address",
          "name": "receiver",
          "type": "address"
        }
      ],
      "name": "ERC721InvalidReceiver",
      "type": "error"
    },
    {
      "inputs": [
        {
          "internalType": "address",
          "name": "sender",
          "type": "address"
        }
      ],
      "name": "ERC721InvalidSender",
      "type": "error"
    },
    {
      "inputs": [
        {
          "internalType": "uint256",
          "name": "tokenId",
          "type": "uint256"
        }
      ],
      "name": "ERC721NonexistentToken",
      "type": "error"
    },
    {
      "inputs": [
        {
          "internalType": "address",
          "name": "owner",
          "type": "address"
        }
      ],
      "name": "OwnableInvalidOwner",
      "type": "error"
    },
    {
      "inputs": [
        {
          "internalType": "address",
          "name": "account",
          "type": "address"
        }
      ],
      "name": "OwnableUnauthorizedAccount",
      "type": "error"
    },
    {
      "inputs": [],
      "name": "ReentrancyGuardReentrantCall",
      "type": "error"
    },
    {
      "anonymous": false,
      "inputs": [
        {
          "indexed": true,
          "internalType": "address",
          "name": "owner",
          "type": "address"
        },
        {
          "indexed": true,
          "internalType": "address",
          "name": "approved",
          "type": "address"
        },
        {
          "indexed": true,
          "internalType": "uint256",
          "name": "tokenId",
          "type": "uint256"
        }
      ],
      "name": "Approval",
      "type": "event"
    },
    {
      "anonymous": false,
      "inputs": [
        {
          "indexed": true,
          "internalType": "address",
          "name": "owner",
          "type": "address"
        },
        {
          "indexed": true,
          "internalType": "address",
          "name": "operator",
          "type": "address"
        },
        {
          "indexed": false,
          "internalType": "bool",
          "name": "approved",
          "type": "bool"
        }
      ],
      "name": "ApprovalForAll",
      "type": "event"
    },
    {
      "anonymous": false,
      "inputs": [
        {
          "indexed": false,
          "internalType": "uint256",
          "name": "_fromTokenId",
          "type": "uint256"
        },
        {
          "indexed": false,
          "internalType": "uint256",
          "name": "_toTokenId",
          "type": "uint256"
        }
      ],
      "name": "BatchMetadataUpdate",
      "type": "event"
    },
    {
      "anonymous": false,
      "inputs": [
        {
          "indexed": false,
          "internalType": "uint256",
          "name": "_tokenId",
          "type": "uint256"
        }
      ],
      "name": "MetadataUpdate",
      "type": "event"
    },
    {
      "anonymous": false,
      "inputs": [
        {
          "indexed": true,
          "internalType": "uint256",
          "name": "tokenId",
          "type": "uint256"
        },
        {
          "indexed": false,
          "internalType": "bytes32",
          "name": "newHash",
          "type": "bytes32"
        }
      ],
      "name": "MetadataUpdated",
      "type": "event"
    },
    {
      "anonymous": false,
      "inputs": [
        {
          "indexed": true,
          "internalType": "uint256",
          "name": "tokenId",
          "type": "uint256"
        },
        {
          "indexed": false,
          "internalType": "bytes32",
          "name": "newHash",
          "type": "bytes32"
        },
        {
          "indexed": false,
          "internalType": "string",
          "name": "newEncryptedURI",
          "type": "string"
        }
      ],
      "name": "MetadataUpdatedFull",
      "type": "event"
    },
    {
      "anonymous": false,
      "inputs": [
        {
          "indexed": true,
          "internalType": "bytes32",
          "name": "node",
          "type": "bytes32"
        },
        {
          "indexed": true,
          "internalType": "uint256",
          "name": "tokenId",
          "type": "uint256"
        },
        {
          "indexed": false,
          "internalType": "address",
          "name": "owner",
          "type": "address"
        },
        {
          "indexed": false,
          "internalType": "address",
          "name": "resolver",
          "type": "address"
        }
      ],
      "name": "NameRegistered",
      "type": "event"
    },
    {
      "anonymous": false,
      "inputs": [
        {
          "indexed": true,
          "internalType": "bytes32",
          "name": "node",
          "type": "bytes32"
        },
        {
          "indexed": false,
          "internalType": "address",
          "name": "from",
          "type": "address"
        },
        {
          "indexed": false,
          "internalType": "address",
          "name": "to",
          "type": "address"
        }
      ],
      "name": "NameTransferred",
      "type": "event"
    },
    {
      "anonymous": false,
      "inputs": [
        {
          "indexed": true,
          "internalType": "address",
          "name": "previousOwner",
          "type": "address"
        },
        {
          "indexed": true,
          "internalType": "address",
          "name": "newOwner",
          "type": "address"
        }
      ],
      "name": "OwnershipTransferred",
      "type": "event"
    },
    {
      "anonymous": false,
      "inputs": [
        {
          "indexed": true,
          "internalType": "address",
          "name": "from",
          "type": "address"
        },
        {
          "indexed": true,
          "internalType": "address",
          "name": "to",
          "type": "address"
        },
        {
          "indexed": true,
          "internalType": "uint256",
          "name": "tokenId",
          "type": "uint256"
        }
      ],
      "name": "Transfer",
      "type": "event"
    },
    {
      "anonymous": false,
      "inputs": [
        {
          "indexed": true,
          "internalType": "uint256",
          "name": "tokenId",
          "type": "uint256"
        },
        {
          "indexed": true,
          "internalType": "address",
          "name": "executor",
          "type": "address"
        }
      ],
      "name": "UsageAuthorized",
      "type": "event"
    },
    {
      "inputs": [
        {
          "internalType": "address",
          "name": "to",
          "type": "address"
        },
        {
          "internalType": "uint256",
          "name": "tokenId",
          "type": "uint256"
        }
      ],
      "name": "approve",
      "outputs": [],
      "stateMutability": "nonpayable",
      "type": "function"
    },
    {
      "inputs": [
        {
          "internalType": "uint256",
          "name": "tokenId",
          "type": "uint256"
        },
        {
          "internalType": "address",
          "name": "executor",
          "type": "address"
        },
        {
          "internalType": "bytes",
          "name": "permissions",
          "type": "bytes"
        }
      ],
      "name": "authorizeUsage",
      "outputs": [],
      "stateMutability": "nonpayable",
      "type": "function"
    },
    {
      "inputs": [
        {
          "internalType": "address",
          "name": "owner",
          "type": "address"
        }
      ],
      "name": "balanceOf",
      "outputs": [
        {
          "internalType": "uint256",
          "name": "",
          "type": "uint256"
        }
      ],
      "stateMutability": "view",
      "type": "function"
    },
    {
      "inputs": [],
      "name": "baseNode",
      "outputs": [
        {
          "internalType": "bytes32",
          "name": "",
          "type": "bytes32"
        }
      ],
      "stateMutability": "view",
      "type": "function"
    },
    {
      "inputs": [],
      "name": "erc7857InterfaceId",
      "outputs": [
        {
          "internalType": "bytes4",
          "name": "",
          "type": "bytes4"
        }
      ],
      "stateMutability": "pure",
      "type": "function"
    },
    {
      "inputs": [
        {
          "internalType": "uint256",
          "name": "tokenId",
          "type": "uint256"
        }
      ],
      "name": "getApproved",
      "outputs": [
        {
          "internalType": "address",
          "name": "",
          "type": "address"
        }
      ],
      "stateMutability": "view",
      "type": "function"
    },
    {
      "inputs": [
        {
          "internalType": "uint256",
          "name": "tokenId",
          "type": "uint256"
        }
      ],
      "name": "getEncryptedURI",
      "outputs": [
        {
          "internalType": "string",
          "name": "",
          "type": "string"
        }
      ],
      "stateMutability": "view",
      "type": "function"
    },
    {
      "inputs": [
        {
          "internalType": "uint256",
          "name": "tokenId",
          "type": "uint256"
        }
      ],
      "name": "getMetadataHash",
      "outputs": [
        {
          "internalType": "bytes32",
          "name": "",
          "type": "bytes32"
        }
      ],
      "stateMutability": "view",
      "type": "function"
    },
    {
      "inputs": [
        {
          "internalType": "address",
          "name": "owner",
          "type": "address"
        },
        {
          "internalType": "address",
          "name": "operator",
          "type": "address"
        }
      ],
      "name": "isApprovedForAll",
      "outputs": [
        {
          "internalType": "bool",
          "name": "",
          "type": "bool"
        }
      ],
      "stateMutability": "view",
      "type": "function"
    },
    {
      "inputs": [
        {
          "internalType": "string",
          "name": "label",
          "type": "string"
        },
        {
          "internalType": "address",
          "name": "owner_",
          "type": "address"
        },
        {
          "internalType": "address",
          "name": "resolver_",
          "type": "address"
        },
        {
          "internalType": "uint64",
          "name": "",
          "type": "uint64"
        },
        {
          "internalType": "string",
          "name": "encryptedURI",
          "type": "string"
        },
        {
          "internalType": "bytes32",
          "name": "metadataHash",
          "type": "bytes32"
        }
      ],
      "name": "mint",
      "outputs": [
        {
          "internalType": "uint256",
          "name": "tokenId",
          "type": "uint256"
        }
      ],
      "stateMutability": "nonpayable",
      "type": "function"
    },
    {
      "inputs": [],
      "name": "name",
      "outputs": [
        {
          "internalType": "string",
          "name": "",
          "type": "string"
        }
      ],
      "stateMutability": "view",
      "type": "function"
    },
    {
      "inputs": [
        {
          "internalType": "bytes32",
          "name": "",
          "type": "bytes32"
        }
      ],
      "name": "nodeToTokenId",
      "outputs": [
        {
          "internalType": "uint256",
          "name": "",
          "type": "uint256"
        }
      ],
      "stateMutability": "view",
      "type": "function"
    },
    {
      "inputs": [],
      "name": "oracle",
      "outputs": [
        {
          "internalType": "contract IOracle",
          "name": "",
          "type": "address"
        }
      ],
      "stateMutability": "view",
      "type": "function"
    },
    {
      "inputs": [],
      "name": "owner",
      "outputs": [
        {
          "internalType": "address",
          "name": "",
          "type": "address"
        }
      ],
      "stateMutability": "view",
      "type": "function"
    },
    {
      "inputs": [
        {
          "internalType": "uint256",
          "name": "tokenId",
          "type": "uint256"
        }
      ],
      "name": "ownerOf",
      "outputs": [
        {
          "internalType": "address",
          "name": "",
          "type": "address"
        }
      ],
      "stateMutability": "view",
      "type": "function"
    },
    {
      "inputs": [],
      "name": "priceWei",
      "outputs": [
        {
          "internalType": "uint256",
          "name": "",
          "type": "uint256"
        }
      ],
      "stateMutability": "view",
      "type": "function"
    },
    {
      "inputs": [
        {
          "internalType": "string",
          "name": "label",
          "type": "string"
        },
        {
          "internalType": "address",
          "name": "resolver_",
          "type": "address"
        },
        {
          "internalType": "uint64",
          "name": "",
          "type": "uint64"
        },
        {
          "internalType": "string",
          "name": "encryptedURI",
          "type": "string"
        },
        {
          "internalType": "bytes32",
          "name": "metadataHash",
          "type": "bytes32"
        }
      ],
      "name": "purchase",
      "outputs": [
        {
          "internalType": "uint256",
          "name": "tokenId",
          "type": "uint256"
        }
      ],
      "stateMutability": "payable",
      "type": "function"
    },
    {
      "inputs": [],
      "name": "registry",
      "outputs": [
        {
          "internalType": "contract Name0gRegistry",
          "name": "",
          "type": "address"
        }
      ],
      "stateMutability": "view",
      "type": "function"
    },
    {
      "inputs": [],
      "name": "renounceOwnership",
      "outputs": [],
      "stateMutability": "nonpayable",
      "type": "function"
    },
    {
      "inputs": [
        {
          "internalType": "address",
          "name": "from",
          "type": "address"
        },
        {
          "internalType": "address",
          "name": "to",
          "type": "address"
        },
        {
          "internalType": "uint256",
          "name": "tokenId",
          "type": "uint256"
        }
      ],
      "name": "safeTransferFrom",
      "outputs": [],
      "stateMutability": "nonpayable",
      "type": "function"
    },
    {
      "inputs": [
        {
          "internalType": "address",
          "name": "from",
          "type": "address"
        },
        {
          "internalType": "address",
          "name": "to",
          "type": "address"
        },
        {
          "internalType": "uint256",
          "name": "tokenId",
          "type": "uint256"
        },
        {
          "internalType": "bytes",
          "name": "data",
          "type": "bytes"
        }
      ],
      "name": "safeTransferFrom",
      "outputs": [],
      "stateMutability": "nonpayable",
      "type": "function"
    },
    {
      "inputs": [
        {
          "internalType": "address",
          "name": "operator",
          "type": "address"
        },
        {
          "internalType": "bool",
          "name": "approved",
          "type": "bool"
        }
      ],
      "name": "setApprovalForAll",
      "outputs": [],
      "stateMutability": "nonpayable",
      "type": "function"
    },
    {
      "inputs": [
        {
          "internalType": "uint256",
          "name": "newPrice",
          "type": "uint256"
        }
      ],
      "name": "setPrice",
      "outputs": [],
      "stateMutability": "nonpayable",
      "type": "function"
    },
    {
      "inputs": [
        {
          "internalType": "uint256",
          "name": "tokenId",
          "type": "uint256"
        },
        {
          "internalType": "address",
          "name": "resolver",
          "type": "address"
        }
      ],
      "name": "setResolver",
      "outputs": [],
      "stateMutability": "nonpayable",
      "type": "function"
    },
    {
      "inputs": [
        {
          "internalType": "bytes4",
          "name": "interfaceId",
          "type": "bytes4"
        }
      ],
      "name": "supportsInterface",
      "outputs": [
        {
          "internalType": "bool",
          "name": "",
          "type": "bool"
        }
      ],
      "stateMutability": "view",
      "type": "function"
    },
    {
      "inputs": [],
      "name": "symbol",
      "outputs": [
        {
          "internalType": "string",
          "name": "",
          "type": "string"
        }
      ],
      "stateMutability": "view",
      "type": "function"
    },
    {
      "inputs": [
        {
          "internalType": "uint256",
          "name": "",
          "type": "uint256"
        }
      ],
      "name": "tokenIdToNode",
      "outputs": [
        {
          "internalType": "bytes32",
          "name": "",
          "type": "bytes32"
        }
      ],
      "stateMutability": "view",
      "type": "function"
    },
    {
      "inputs": [
        {
          "internalType": "uint256",
          "name": "tokenId",
          "type": "uint256"
        }
      ],
      "name": "tokenURI",
      "outputs": [
        {
          "internalType": "string",
          "name": "",
          "type": "string"
        }
      ],
      "stateMutability": "view",
      "type": "function"
    },
    {
      "inputs": [
        {
          "internalType": "address",
          "name": "from",
          "type": "address"
        },
        {
          "internalType": "address",
          "name": "to",
          "type": "address"
        },
        {
          "internalType": "uint256",
          "name": "tokenId",
          "type": "uint256"
        },
        {
          "internalType": "bytes",
          "name": "sealedKey",
          "type": "bytes"
        },
        {
          "internalType": "bytes",
          "name": "",
          "type": "bytes"
        }
      ],
      "name": "transfer",
      "outputs": [],
      "stateMutability": "nonpayable",
      "type": "function"
    },
    {
      "inputs": [
        {
          "internalType": "address",
          "name": "from",
          "type": "address"
        },
        {
          "internalType": "address",
          "name": "to",
          "type": "address"
        },
        {
          "internalType": "uint256",
          "name": "tokenId",
          "type": "uint256"
        }
      ],
      "name": "transferFrom",
      "outputs": [],
      "stateMutability": "nonpayable",
      "type": "function"
    },
    {
      "inputs": [
        {
          "internalType": "address",
          "name": "newOwner",
          "type": "address"
        }
      ],
      "name": "transferOwnership",
      "outputs": [],
      "stateMutability": "nonpayable",
      "type": "function"
    },
    {
      "inputs": [
        {
          "internalType": "uint256",
          "name": "tokenId",
          "type": "uint256"
        },
        {
          "internalType": "string",
          "name": "newEncryptedURI",
          "type": "string"
        },
        {
          "internalType": "bytes32",
          "name": "newHash",
          "type": "bytes32"
        }
      ],
      "name": "updateMetadata",
      "outputs": [],
      "stateMutability": "nonpayable",
      "type": "function"
    },
    {
      "inputs": [
        {
          "internalType": "address payable",
          "name": "to",
          "type": "address"
        }
      ],
      "name": "withdraw",
      "outputs": [],
      "stateMutability": "nonpayable",
      "type": "function"
    }
  ],
  "bytecode": "0x60c06040526001600f55662386f26fc1000060105534801562000020575f80fd5b506040516200311a3803806200311a83398101604081905262000043916200017c565b33604051806040016040528060078152602001666e616d652e306760c81b815250604051806040016040528060068152602001654e414d45304760d01b815250815f90816200009391906200025f565b506001620000a282826200025f565b5050506001600160a01b038116620000d357604051631e4fbdf760e01b81525f600482015260240160405180910390fd5b620000de8162000113565b5060016008556001600160a01b0392831660805260a091909152600980546001600160a01b031916919092161790556200032b565b600780546001600160a01b038381166001600160a01b0319831681179093556040519116919082907f8be0079c531659141344cd1fd0a4f28419497f9722a3daafe3b4186f6b6457e0905f90a35050565b6001600160a01b038116811462000179575f80fd5b50565b5f805f606084860312156200018f575f80fd5b83516200019c8162000164565b602085015160408601519194509250620001b68162000164565b809150509250925092565b634e487b7160e01b5f52604160045260245ffd5b600181811c90821680620001ea57607f821691505b6020821081036200020957634e487b7160e01b5f52602260045260245ffd5b50919050565b601f8211156200025a57805f5260205f20601f840160051c81016020851015620002365750805b601f840160051c820191505b8181101562000257575f815560010162000242565b50505b505050565b81516001600160401b038111156200027b576200027b620001c1565b62000293816200028c8454620001d5565b846200020f565b602080601f831160018114620002c9575f8415620002b15750858301515b5f19600386901b1c1916600185901b17855562000323565b5f85815260208120601f198616915b82811015620002f957888601518255948401946001909101908401620002d8565b50858210156200031757878501515f19600388901b60f8161c191681555b505060018460011b0185555b505050505050565b60805160a051612d95620003855f395f818161059c01528181610a6801528181610b6901528181610cfc0152610dfd01525f81816103da01528181610b9c01528181610e3a01528181611064015261114c0152612d955ff3fe6080604052600436106101e6575f3560e01c80637fb5e3ef11610108578063b88d4fde1161009d578063ddf7fcb01161006d578063ddf7fcb01461058b578063e985e9c5146105be578063f2fde38b146105dd578063f448f871146105fc578063fc2b0f6914610627575f80fd5b8063b88d4fde1461050f578063bc7b6d621461052e578063c78fed041461054d578063c87b56dd1461056c575f80fd5b806399c83ed6116100d857806399c83ed61461049d578063a22cb465146104bc578063acbb3f7c146104db578063b7ec2086146104fa575f80fd5b80637fb5e3ef1461043a5780638da5cb5b1461044d57806391b7f5ed1461046a57806395d89b4114610489575f80fd5b806342842e0e1161017e578063715018a61161014e578063715018a6146103b55780637b103999146103c95780637b297a6f146103fc5780637dc0d1d01461041b575f80fd5b806342842e0e1461033957806351cff8d9146103585780636352211e1461037757806370a0823114610396575f80fd5b80630bc74be4116101b95780630bc74be41461029757806323b872dd146102d05780633eeb46dc146102ef57806341cf32911461030e575f80fd5b806301ffc9a7146101ea57806306fdde031461021e578063081812fc1461023f578063095ea7b314610276575b5f80fd5b3480156101f5575f80fd5b5061020961020436600461203e565b610648565b60405190151581526020015b60405180910390f35b348015610229575f80fd5b50610232610672565b60405161021591906120a6565b34801561024a575f80fd5b5061025e6102593660046120b8565b610701565b6040516001600160a01b039091168152602001610215565b348015610281575f80fd5b506102956102903660046120e3565b610728565b005b3480156102a2575f80fd5b506102c26102b13660046120b8565b600e6020525f908152604090205481565b604051908152602001610215565b3480156102db575f80fd5b506102956102ea36600461210d565b610737565b3480156102fa575f80fd5b50610295610309366004612190565b6107c5565b348015610319575f80fd5b506102c26103283660046120b8565b600d6020525f908152604090205481565b348015610344575f80fd5b5061029561035336600461210d565b61089c565b348015610363575f80fd5b506102956103723660046121df565b6108bb565b348015610382575f80fd5b5061025e6103913660046120b8565b6108f5565b3480156103a1575f80fd5b506102c26103b03660046121df565b6108ff565b3480156103c0575f80fd5b50610295610944565b3480156103d4575f80fd5b5061025e7f000000000000000000000000000000000000000000000000000000000000000081565b348015610407575f80fd5b506102956104163660046121fa565b610957565b348015610426575f80fd5b5060095461025e906001600160a01b031681565b6102c261044836600461226e565b6109ef565b348015610458575f80fd5b506007546001600160a01b031661025e565b348015610475575f80fd5b506102956104843660046120b8565b610ca8565b348015610494575f80fd5b50610232610cb5565b3480156104a8575f80fd5b506102c26104b7366004612306565b610cc4565b3480156104c7575f80fd5b506102956104d63660046123b1565b610f3c565b3480156104e6575f80fd5b506102326104f53660046120b8565b610f47565b348015610505575f80fd5b506102c260105481565b34801561051a575f80fd5b50610295610529366004612400565b610fe6565b348015610539575f80fd5b506102956105483660046124d9565b610ffe565b348015610558575f80fd5b506102956105673660046124fc565b6110bf565b348015610577575f80fd5b506102326105863660046120b8565b6112a3565b348015610596575f80fd5b506102c27f000000000000000000000000000000000000000000000000000000000000000081565b3480156105c9575f80fd5b506102096105d8366004612594565b6113ae565b3480156105e8575f80fd5b506102956105f73660046121df565b6113db565b348015610607575f80fd5b506102c26106163660046120b8565b5f908152600a602052604090205490565b348015610632575f80fd5b5060405163722aa83360e11b8152602001610215565b5f6001600160e01b0319821663722aa83360e11b148061066c575061066c82611418565b92915050565b60605f8054610680906125c0565b80601f01602080910402602001604051908101604052809291908181526020018280546106ac906125c0565b80156106f75780601f106106ce576101008083540402835291602001916106f7565b820191905f5260205f20905b8154815290600101906020018083116106da57829003601f168201915b5050505050905090565b5f61070b8261143c565b505f828152600460205260409020546001600160a01b031661066c565b610733828233611474565b5050565b6001600160a01b03821661076557604051633250574960e11b81525f60048201526024015b60405180910390fd5b5f610771838333611481565b9050836001600160a01b0316816001600160a01b0316146107bf576040516364283d7b60e01b81526001600160a01b038086166004830152602482018490528216604482015260640161075c565b50505050565b336107cf856108f5565b6001600160a01b0316146107f55760405162461bcd60e51b815260040161075c906125f8565b5f848152600b6020526040902061080d83858361265f565b505f848152600a6020526040908190208290555184907f9c06c04824dfb4ebf41804d51120c24a2ab63d6230efe7b7bc5a199f837dd3ad906108529084815260200190565b60405180910390a2837f5afe3ab07607b26d0ae90fd8f83ea1118668a5b897f3bece54f3e29bccf3a73e82858560405161088e93929190612719565b60405180910390a250505050565b6108b683838360405180602001604052805f815250610fe6565b505050565b6108c3611575565b6040516001600160a01b038216904780156108fc02915f818181858888f19350505050158015610733573d5f803e3d5ffd5b5f61066c8261143c565b5f6001600160a01b038216610929576040516322718ad960e21b81525f600482015260240161075c565b506001600160a01b03165f9081526003602052604090205490565b61094c611575565b6109555f6115a2565b565b33610961856108f5565b6001600160a01b0316146109875760405162461bcd60e51b815260040161075c906125f8565b5f848152600c602090815260408083206001600160a01b038716845290915290206109b382848361265f565b506040516001600160a01b0384169085907f6b759ed2b6cfe980ab7df296b16f139dd2d334802653e3a3d396153450b9cff1905f90a350505050565b5f601054341015610a395760405162461bcd60e51b81526020600482015260146024820152731a5b9cdd59999a58da595b9d081c185e5b595b9d60621b604482015260640161075c565b5f8888604051602001610a4d92919061274e565b6040516020818303038152906040528051906020012090505f7f000000000000000000000000000000000000000000000000000000000000000082604051602001610aa2929190918252602082015260400190565b60408051601f1981840301815291815281516020928301205f818152600d90935291205490915015610afe5760405162461bcd60e51b81526020600482015260056024820152643a30b5b2b760d91b604482015260640161075c565b600f8054905f610b0d83612771565b919050559250610b1d33846115f3565b5f818152600d60209081526040808320869055858352600e8252808320849055600a8252808320879055600b9091529020610b5986888361265f565b506040516306ab592360e01b81527f00000000000000000000000000000000000000000000000000000000000000006004820152602481018390523360448201527f00000000000000000000000000000000000000000000000000000000000000006001600160a01b0316906306ab5923906064016020604051808303815f875af1158015610bea573d5f803e3d5ffd5b505050506040513d601f19601f82011682018060405250810190610c0e9190612789565b50610c5683610c518c8c8080601f0160208091040260200160405190810160405280939291908181526020018383808284375f9201919091525061160c92505050565b6116e1565b604080513381526001600160a01b038a166020820152849183917fe87bc320c8c51140fe20d7f80117c877f0708245201b9ab987df394ed7a47a8a910160405180910390a35050979650505050505050565b610cb0611575565b601055565b606060018054610680906125c0565b5f610ccd611575565b5f8989604051602001610ce192919061274e565b6040516020818303038152906040528051906020012090505f7f000000000000000000000000000000000000000000000000000000000000000082604051602001610d36929190918252602082015260400190565b60408051601f1981840301815291815281516020928301205f818152600d90935291205490915015610d925760405162461bcd60e51b81526020600482015260056024820152643a30b5b2b760d91b604482015260640161075c565b600f8054905f610da183612771565b919050559250610db189846115f3565b5f818152600d60209081526040808320869055858352600e8252808320849055600a8252808320879055600b9091529020610ded86888361265f565b506040516306ab592360e01b81527f00000000000000000000000000000000000000000000000000000000000000006004820152602481018390526001600160a01b038a811660448301527f000000000000000000000000000000000000000000000000000000000000000016906306ab5923906064016020604051808303815f875af1158015610e80573d5f803e3d5ffd5b505050506040513d601f19601f82011682018060405250810190610ea49190612789565b50610ee783610c518d8d8080601f0160208091040260200160405190810160405280939291908181526020018383808284375f9201919091525061160c92505050565b604080516001600160a01b03808c1682528a166020820152849183917fe87bc320c8c51140fe20d7f80117c877f0708245201b9ab987df394ed7a47a8a910160405180910390a3505098975050505050505050565b610733338383611730565b5f818152600b60205260409020805460609190610f63906125c0565b80601f0160208091040260200160405190810160405280929190818152602001828054610f8f906125c0565b8015610fda5780601f10610fb157610100808354040283529160200191610fda565b820191905f5260205f20905b815481529060010190602001808311610fbd57829003601f168201915b50505050509050919050565b610ff1848484610737565b6107bf33858585856117ce565b33611008836108f5565b6001600160a01b03161461102e5760405162461bcd60e51b815260040161075c906125f8565b5f828152600e602052604090819020549051630c4b7b8560e11b815260048101919091526001600160a01b0382811660248301527f00000000000000000000000000000000000000000000000000000000000000001690631896f70a906044015f604051808303815f87803b1580156110a5575f80fd5b505af11580156110b7573d5f803e3d5ffd5b505050505050565b6110c76118f4565b6110d1338661191e565b61110c5760405162461bcd60e51b815260206004820152600c60248201526b1b9bdd08185c1c1c9bdd995960a21b604482015260640161075c565b611117878787611974565b5f858152600e602052604090819020549051635b0fc9c360e01b8152600481018290526001600160a01b0388811660248301527f00000000000000000000000000000000000000000000000000000000000000001690635b0fc9c3906044015f604051808303815f87803b15801561118d575f80fd5b505af115801561119f573d5f803e3d5ffd5b5050604080516001600160a01b03808d1682528b1660208201528493507fee3ae35c0d0799fb196f821efc8d30111345552cd23192da6bab51e7f664b6ba92500160405180910390a25f85856040516111f992919061274e565b604080519182900382205f8a8152600a6020908152929020819055808352925088917f9c06c04824dfb4ebf41804d51120c24a2ab63d6230efe7b7bc5a199f837dd3ad910160405180910390a25f878152600b602052604090819020905188917f5afe3ab07607b26d0ae90fd8f83ea1118668a5b897f3bece54f3e29bccf3a73e916112869185916127a0565b60405180910390a2505061129a6001600855565b50505050505050565b60606112ae8261143c565b505f82815260066020526040812080546112c7906125c0565b80601f01602080910402602001604051908101604052809291908181526020018280546112f3906125c0565b801561133e5780601f106113155761010080835404028352916020019161133e565b820191905f5260205f20905b81548152906001019060200180831161132157829003601f168201915b505050505090505f61135a60408051602081019091525f815290565b905080515f0361136b575092915050565b81511561139d578082604051602001611385929190612832565b60405160208183030381529060405292505050919050565b6113a684611a21565b949350505050565b6001600160a01b039182165f90815260056020908152604080832093909416825291909152205460ff1690565b6113e3611575565b6001600160a01b03811661140c57604051631e4fbdf760e01b81525f600482015260240161075c565b611415816115a2565b50565b5f6001600160e01b03198216632483248360e11b148061066c575061066c82611a91565b5f818152600260205260408120546001600160a01b03168061066c57604051637e27328960e01b81526004810184905260240161075c565b6108b68383836001611ae0565b5f828152600260205260408120546001600160a01b03908116908316156114ad576114ad818486611be4565b6001600160a01b038116156114e7576114c85f855f80611ae0565b6001600160a01b0381165f90815260036020526040902080545f190190555b6001600160a01b03851615611515576001600160a01b0385165f908152600360205260409020805460010190555b5f8481526002602052604080822080546001600160a01b0319166001600160a01b0389811691821790925591518793918516917fddf252ad1be2c89b69c2b068fc378daa952ba7f163c4a11628f55a4df523b3ef91a490505b9392505050565b6007546001600160a01b031633146109555760405163118cdaa760e01b815233600482015260240161075c565b600780546001600160a01b038381166001600160a01b0319831681179093556040519116919082907f8be0079c531659141344cd1fd0a4f28419497f9722a3daafe3b4186f6b6457e0905f90a35050565b610733828260405180602001604052805f815250611c48565b60605f826040516020016116209190612860565b60405160208183030381529060405290505f816040516020016116439190612886565b60405160208183030381529060405290505f61165e82611c5f565b90505f816040516020016116729190612a2a565b60405160208183030381529060405290505f8482604051602001611697929190612a6e565b60405160208183030381529060405290505f6116b282611c5f565b9050806040516020016116c59190612b7f565b6040516020818303038152906040529650505050505050919050565b5f8281526006602052604090206116f88282612bc3565b506040518281527ff8e1a15aba9398e019f0b49df1a4fde98ee17ae345cb5f6b5e2c27f5033e8ce79060200160405180910390a15050565b6001600160a01b03821661176257604051630b61174360e31b81526001600160a01b038316600482015260240161075c565b6001600160a01b038381165f81815260056020908152604080832094871680845294825291829020805460ff191686151590811790915591519182527f17307eab39ab6107e8899845ad3d59bd9653f200f220920489ca2b5937696c31910160405180910390a3505050565b6001600160a01b0383163b156118ed57604051630a85bd0160e11b81526001600160a01b0384169063150b7a0290611810908890889087908790600401612c7f565b6020604051808303815f875af192505050801561184a575060408051601f3d908101601f1916820190925261184791810190612cbb565b60015b6118b1573d808015611877576040519150601f19603f3d011682016040523d82523d5f602084013e61187c565b606091505b5080515f036118a957604051633250574960e11b81526001600160a01b038516600482015260240161075c565b805160208201fd5b6001600160e01b03198116630a85bd0160e11b146110b757604051633250574960e11b81526001600160a01b038516600482015260240161075c565b5050505050565b60026008540361191757604051633ee5aeb560e01b815260040160405180910390fd5b6002600855565b5f80611929836108f5565b9050806001600160a01b0316846001600160a01b031614806119645750836001600160a01b031661195984610701565b6001600160a01b0316145b806113a657506113a681856113ae565b6001600160a01b03821661199d57604051633250574960e11b81525f600482015260240161075c565b5f6119a983835f611481565b90506001600160a01b0381166119d557604051637e27328960e01b81526004810183905260240161075c565b836001600160a01b0316816001600160a01b0316146107bf576040516364283d7b60e01b81526001600160a01b038086166004830152602482018490528216604482015260640161075c565b6060611a2c8261143c565b505f611a4260408051602081019091525f815290565b90505f815111611a605760405180602001604052805f81525061156e565b80611a6a84611c85565b604051602001611a7b929190612832565b6040516020818303038152906040529392505050565b5f6001600160e01b031982166380ac58cd60e01b1480611ac157506001600160e01b03198216635b5e139f60e01b145b8061066c57506301ffc9a760e01b6001600160e01b031983161461066c565b8080611af457506001600160a01b03821615155b15611bb5575f611b038461143c565b90506001600160a01b03831615801590611b2f5750826001600160a01b0316816001600160a01b031614155b8015611b425750611b4081846113ae565b155b15611b6b5760405163a9fbf51f60e01b81526001600160a01b038416600482015260240161075c565b8115611bb35783856001600160a01b0316826001600160a01b03167f8c5be1e5ebec7d5bd14f71427d1e84f3dd0314c0f7b2291e5b200ac8c7c3b92560405160405180910390a45b505b50505f90815260046020526040902080546001600160a01b0319166001600160a01b0392909216919091179055565b611bef838383611d15565b6108b6576001600160a01b038316611c1d57604051637e27328960e01b81526004810182905260240161075c565b60405163177e802f60e01b81526001600160a01b03831660048201526024810182905260440161075c565b611c528383611d76565b6108b6335f8585856117ce565b606061066c82604051806060016040528060408152602001612d20604091396001611dd7565b60605f611c9183611f52565b60010190505f8167ffffffffffffffff811115611cb057611cb06123ec565b6040519080825280601f01601f191660200182016040528015611cda576020820181803683370190505b5090508181016020015b5f19016f181899199a1a9b1b9c1cb0b131b232b360811b600a86061a8153600a8504945084611ce457509392505050565b5f6001600160a01b038316158015906113a65750826001600160a01b0316846001600160a01b03161480611d4e5750611d4e84846113ae565b806113a65750505f908152600460205260409020546001600160a01b03908116911614919050565b6001600160a01b038216611d9f57604051633250574960e11b81525f600482015260240161075c565b5f611dab83835f611481565b90506001600160a01b038116156108b6576040516339e3563760e11b81525f600482015260240161075c565b606083515f03611df5575060408051602081019091525f815261156e565b5f82611e2557600385516004611e0b9190612cd6565b611e16906002612ced565b611e209190612d00565b611e4a565b600385516002611e359190612ced565b611e3f9190612d00565b611e4a906004612cd6565b90505f8167ffffffffffffffff811115611e6657611e666123ec565b6040519080825280601f01601f191660200182016040528015611e90576020820181803683370190505b509050600185016020820187885189016020810180515f82525b82841015611f05576003840193508351603f8160121c168701518653600186019550603f81600c1c168701518653600186019550603f8160061c168701518653600186019550603f8116870151865350600185019450611eaa565b905250508515611f4657600388510660018114611f295760028114611f3c57611f44565b603d6001830353603d6002830353611f44565b603d60018303535b505b50909695505050505050565b5f8072184f03e93ff9f4daa797ed6e38ed64bf6a1f0160401b8310611f905772184f03e93ff9f4daa797ed6e38ed64bf6a1f0160401b830492506040015b6d04ee2d6d415b85acef81000000008310611fbc576d04ee2d6d415b85acef8100000000830492506020015b662386f26fc100008310611fda57662386f26fc10000830492506010015b6305f5e1008310611ff2576305f5e100830492506008015b612710831061200657612710830492506004015b60648310612018576064830492506002015b600a831061066c5760010192915050565b6001600160e01b031981168114611415575f80fd5b5f6020828403121561204e575f80fd5b813561156e81612029565b5f5b8381101561207357818101518382015260200161205b565b50505f910152565b5f8151808452612092816020860160208601612059565b601f01601f19169290920160200192915050565b602081525f61156e602083018461207b565b5f602082840312156120c8575f80fd5b5035919050565b6001600160a01b0381168114611415575f80fd5b5f80604083850312156120f4575f80fd5b82356120ff816120cf565b946020939093013593505050565b5f805f6060848603121561211f575f80fd5b833561212a816120cf565b9250602084013561213a816120cf565b929592945050506040919091013590565b5f8083601f84011261215b575f80fd5b50813567ffffffffffffffff811115612172575f80fd5b602083019150836020828501011115612189575f80fd5b9250929050565b5f805f80606085870312156121a3575f80fd5b84359350602085013567ffffffffffffffff8111156121c0575f80fd5b6121cc8782880161214b565b9598909750949560400135949350505050565b5f602082840312156121ef575f80fd5b813561156e816120cf565b5f805f806060858703121561220d575f80fd5b84359350602085013561221f816120cf565b9250604085013567ffffffffffffffff81111561223a575f80fd5b6122468782880161214b565b95989497509550505050565b803567ffffffffffffffff81168114612269575f80fd5b919050565b5f805f805f805f60a0888a031215612284575f80fd5b873567ffffffffffffffff8082111561229b575f80fd5b6122a78b838c0161214b565b909950975060208a013591506122bc826120cf565b8196506122cb60408b01612252565b955060608a01359150808211156122e0575f80fd5b506122ed8a828b0161214b565b989b979a50959894979596608090950135949350505050565b5f805f805f805f8060c0898b03121561231d575f80fd5b883567ffffffffffffffff80821115612334575f80fd5b6123408c838d0161214b565b909a50985060208b01359150612355826120cf565b90965060408a013590612367826120cf565b81965061237660608c01612252565b955060808b013591508082111561238b575f80fd5b506123988b828c0161214b565b999c989b50969995989497949560a00135949350505050565b5f80604083850312156123c2575f80fd5b82356123cd816120cf565b9150602083013580151581146123e1575f80fd5b809150509250929050565b634e487b7160e01b5f52604160045260245ffd5b5f805f8060808587031215612413575f80fd5b843561241e816120cf565b9350602085013561242e816120cf565b925060408501359150606085013567ffffffffffffffff80821115612451575f80fd5b818701915087601f830112612464575f80fd5b813581811115612476576124766123ec565b604051601f8201601f19908116603f0116810190838211818310171561249e5761249e6123ec565b816040528281528a60208487010111156124b6575f80fd5b826020860160208301375f60208483010152809550505050505092959194509250565b5f80604083850312156124ea575f80fd5b8235915060208301356123e1816120cf565b5f805f805f805f60a0888a031215612512575f80fd5b873561251d816120cf565b9650602088013561252d816120cf565b955060408801359450606088013567ffffffffffffffff80821115612550575f80fd5b61255c8b838c0161214b565b909650945060808a0135915080821115612574575f80fd5b506125818a828b0161214b565b989b979a50959850939692959293505050565b5f80604083850312156125a5575f80fd5b82356125b0816120cf565b915060208301356123e1816120cf565b600181811c908216806125d457607f821691505b6020821081036125f257634e487b7160e01b5f52602260045260245ffd5b50919050565b6020808252600990820152683737ba1037bbb732b960b91b604082015260600190565b601f8211156108b657805f5260205f20601f840160051c810160208510156126405750805b601f840160051c820191505b818110156118ed575f815560010161264c565b67ffffffffffffffff831115612677576126776123ec565b61268b8361268583546125c0565b8361261b565b5f601f8411600181146126bc575f85156126a55750838201355b5f19600387901b1c1916600186901b1783556118ed565b5f83815260208120601f198716915b828110156126eb57868501358255602094850194600190920191016126cb565b5086821015612707575f1960f88860031b161c19848701351681555b505060018560011b0183555050505050565b83815260406020820152816040820152818360608301375f818301606090810191909152601f909201601f1916010192915050565b818382375f9101908152919050565b634e487b7160e01b5f52601160045260245ffd5b5f600182016127825761278261275d565b5060010190565b5f60208284031215612799575f80fd5b5051919050565b8281525f6020604060208401525f84546127b9816125c0565b806040870152606060018084165f81146127da57600181146127f657612823565b60ff19851660608a0152606084151560051b8a01019550612823565b895f5260205f205f5b8581101561281a5781548b82018601529083019088016127ff565b8a016060019650505b50939998505050505050505050565b5f8351612843818460208801612059565b835190830190612857818360208801612059565b01949350505050565b5f8251612871818460208701612059565b622e306760e81b920191825250600301919050565b7f3c73766720786d6c6e733d22687474703a2f2f7777772e77332e6f72672f323081527f30302f737667222077696474683d2235313222206865696768743d223531322260208201527f2076696577426f783d223020302035313220353132223e00000000000000000060408201527f3c726563742077696474683d223130302522206865696768743d223130302522605782015270103334b6361e911198311898191811179f60791b60778201527f3c7465787420783d223530252220793d223530252220646f6d696e616e742d6260888201527f6173656c696e653d226d6964646c652220746578742d616e63686f723d226d6960a882015264323236329160d91b60c88201527f20666f6e742d66616d696c793d226d6f6e6f73706163652220666f6e742d736960cd8201527f7a653d223336222066696c6c3d2223623066666133223e00000000000000000060ed8201525f61010483516129f18183860160208801612059565b612a21612a0f8383870101661e17ba32bc3a1f60c91b815260070190565b651e17b9bb339f60d11b815260060190565b95945050505050565b7f646174613a696d6167652f7376672b786d6c3b6261736536342c00000000000081525f8251612a6181601a850160208701612059565b91909101601a0192915050565b683d913730b6b2911d1160b91b815282515f90612a92816009850160208801612059565b7f222c226465736372697074696f6e223a226e616d652e306720694e4654222c00600991840191820152730898dc99585d1bdc888e889b985b594b8c19c88b60621b60288201527f2265787465726e616c5f75726c223a2268747470733a2f2f30672e6169222c00603c820152681134b6b0b3b2911d1160b91b605b8201528351612b24816064840160208801612059565b61088b60f21b606492909101918201527f2261747472696275746573223a5b7b2274726169745f74797065223a22544c44606682015270222c2276616c7565223a223067227d5d7d60781b6086820152609701949350505050565b7f646174613a6170706c69636174696f6e2f6a736f6e3b6261736536342c00000081525f8251612bb681601d850160208701612059565b91909101601d0192915050565b815167ffffffffffffffff811115612bdd57612bdd6123ec565b612bf181612beb84546125c0565b8461261b565b602080601f831160018114612c24575f8415612c0d5750858301515b5f19600386901b1c1916600185901b1785556110b7565b5f85815260208120601f198616915b82811015612c5257888601518255948401946001909101908401612c33565b5085821015612c6f57878501515f19600388901b60f8161c191681555b5050505050600190811b01905550565b6001600160a01b03858116825284166020820152604081018390526080606082018190525f90612cb19083018461207b565b9695505050505050565b5f60208284031215612ccb575f80fd5b815161156e81612029565b808202811582820484141761066c5761066c61275d565b8082018082111561066c5761066c61275d565b5f82612d1a57634e487b7160e01b5f52601260045260245ffd5b50049056fe4142434445464748494a4b4c4d4e4f505152535455565758595a6162636465666768696a6b6c6d6e6f707172737475767778797a303132333435363738392b2fa26469706673582212207f499fa9212149ccf09e69c039cb474775fdd15eaec42a82a6198978fc25fcf364736f6c63430008180033",
  "linkReferences": {},
  "deployedLinkReferences": {},
  "immutableReferences": {
    "7893": [
      {
        "length": 32,
        "start": 986
      },
      {
        "length": 32,
        "start": 2972
      },
      {
        "length": 32,
        "start": 3642
      },
      {
        "length": 32,
        "start": 4196
      },
      {
        "length": 32,
        "start": 4428
      }
    ],
    "7895": [
      {
        "length": 32,
        "start": 1436
      },
      {
        "length": 32,
        "start": 2664
      },
      {
        "length": 32,
        "start": 2921
      },
      {
        "length": 32,
        "start": 3324
      },
      {
        "length": 32,
        "start": 3581
      }
    ]
  },
  "inputSourceName": "project/contracts/Name0gRegistrar7857.sol",
  "buildInfoId": "solc-0_8_24-ab0f40d02aae0ad4567c7f2b26ea9571bb3870df"
}