{
  "_format": "hh3-artifact-1",
  "contractName": "OwnerIntelligenceOracle",
  "sourceName": "contracts/OwnerIntelligenceOracle.sol",
  "abi": [
    {
      "inputs": [],
      "stateMutability": "nonpayable",
      "type": "constructor"
    },
    {
      "anonymous": false,
      "inputs": [
        {
          "indexed": true,
          "internalType": "uint256",
          "name": "tokenId",
          "type": "uint256"
        },
        {
          "indexed": true,
          "internalType": "address",
          "name": "owner",
          "type": "address"
        },
        {
          "indexed": false,
          "internalType": "string",
          "name": "updateType",
          "type": "string"
        },
        {
          "indexed": false,
          "internalType": "string",
          "name": "reason",
          "type": "string"
        },
        {
          "indexed": false,
          "internalType": "bytes32",
          "name": "newHash",
          "type": "bytes32"
        },
        {
          "indexed": false,
          "internalType": "uint256",
          "name": "timestamp",
          "type": "uint256"
        }
      ],
      "name": "OwnerBasedUpdate",
      "type": "event"
    },
    {
      "inputs": [
        {
          "internalType": "uint256",
          "name": "tokenId",
          "type": "uint256"
        },
        {
          "internalType": "address",
          "name": "owner_",
          "type": "address"
        },
        {
          "internalType": "enum OwnerIntelligenceOracle.OwnerIntelligenceType",
          "name": "ruleType",
          "type": "uint8"
        },
        {
          "internalType": "string",
          "name": "triggerCondition",
          "type": "string"
        },
        {
          "internalType": "string",
          "name": "newMetadataURI",
          "type": "string"
        },
        {
          "internalType": "bytes32",
          "name": "newMetadataHash",
          "type": "bytes32"
        },
        {
          "internalType": "uint256",
          "name": "cooldownPeriod",
          "type": "uint256"
        },
        {
          "internalType": "uint256",
          "name": "threshold",
          "type": "uint256"
        }
      ],
      "name": "addOwnerIntelligenceRule",
      "outputs": [],
      "stateMutability": "nonpayable",
      "type": "function"
    },
    {
      "inputs": [],
      "name": "admin",
      "outputs": [
        {
          "internalType": "address",
          "name": "",
          "type": "address"
        }
      ],
      "stateMutability": "view",
      "type": "function"
    },
    {
      "inputs": [
        {
          "internalType": "uint256",
          "name": "tokenId",
          "type": "uint256"
        },
        {
          "internalType": "address",
          "name": "owner_",
          "type": "address"
        }
      ],
      "name": "checkOwnerIntelligence",
      "outputs": [],
      "stateMutability": "nonpayable",
      "type": "function"
    },
    {
      "inputs": [
        {
          "internalType": "address",
          "name": "owner_",
          "type": "address"
        }
      ],
      "name": "getOwnerIntelligenceData",
      "outputs": [
        {
          "internalType": "uint256",
          "name": "socialScore",
          "type": "uint256"
        },
        {
          "internalType": "uint256",
          "name": "reputationScore",
          "type": "uint256"
        },
        {
          "internalType": "uint256",
          "name": "transactionCount",
          "type": "uint256"
        },
        {
          "internalType": "string",
          "name": "location",
          "type": "string"
        },
        {
          "internalType": "uint256",
          "name": "lastActive",
          "type": "uint256"
        },
        {
          "internalType": "uint256",
          "name": "nftInteractionCount",
          "type": "uint256"
        }
      ],
      "stateMutability": "view",
      "type": "function"
    },
    {
      "inputs": [
        {
          "internalType": "uint256",
          "name": "tokenId",
          "type": "uint256"
        }
      ],
      "name": "getTokenOwnerRules",
      "outputs": [
        {
          "components": [
            {
              "internalType": "enum OwnerIntelligenceOracle.OwnerIntelligenceType",
              "name": "ruleType",
              "type": "uint8"
            },
            {
              "internalType": "uint256",
              "name": "tokenId",
              "type": "uint256"
            },
            {
              "internalType": "address",
              "name": "owner",
              "type": "address"
            },
            {
              "internalType": "string",
              "name": "triggerCondition",
              "type": "string"
            },
            {
              "internalType": "string",
              "name": "newMetadataURI",
              "type": "string"
            },
            {
              "internalType": "bytes32",
              "name": "newMetadataHash",
              "type": "bytes32"
            },
            {
              "internalType": "bool",
              "name": "isActive",
              "type": "bool"
            },
            {
              "internalType": "uint256",
              "name": "lastTriggered",
              "type": "uint256"
            },
            {
              "internalType": "uint256",
              "name": "cooldownPeriod",
              "type": "uint256"
            },
            {
              "internalType": "uint256",
              "name": "threshold",
              "type": "uint256"
            }
          ],
          "internalType": "struct OwnerIntelligenceOracle.OwnerIntelligenceRule[]",
          "name": "",
          "type": "tuple[]"
        }
      ],
      "stateMutability": "view",
      "type": "function"
    },
    {
      "inputs": [
        {
          "internalType": "address",
          "name": "",
          "type": "address"
        }
      ],
      "name": "ownerLastActive",
      "outputs": [
        {
          "internalType": "uint256",
          "name": "",
          "type": "uint256"
        }
      ],
      "stateMutability": "view",
      "type": "function"
    },
    {
      "inputs": [
        {
          "internalType": "address",
          "name": "",
          "type": "address"
        }
      ],
      "name": "ownerLocation",
      "outputs": [
        {
          "internalType": "string",
          "name": "",
          "type": "string"
        }
      ],
      "stateMutability": "view",
      "type": "function"
    },
    {
      "inputs": [
        {
          "internalType": "address",
          "name": "",
          "type": "address"
        }
      ],
      "name": "ownerNFTInteractionCount",
      "outputs": [
        {
          "internalType": "uint256",
          "name": "",
          "type": "uint256"
        }
      ],
      "stateMutability": "view",
      "type": "function"
    },
    {
      "inputs": [
        {
          "internalType": "address",
          "name": "",
          "type": "address"
        }
      ],
      "name": "ownerReputationScore",
      "outputs": [
        {
          "internalType": "uint256",
          "name": "",
          "type": "uint256"
        }
      ],
      "stateMutability": "view",
      "type": "function"
    },
    {
      "inputs": [
        {
          "internalType": "address",
          "name": "",
          "type": "address"
        }
      ],
      "name": "ownerSocialScore",
      "outputs": [
        {
          "internalType": "uint256",
          "name": "",
          "type": "uint256"
        }
      ],
      "stateMutability": "view",
      "type": "function"
    },
    {
      "inputs": [
        {
          "internalType": "address",
          "name": "",
          "type": "address"
        }
      ],
      "name": "ownerTransactionCount",
      "outputs": [
        {
          "internalType": "uint256",
          "name": "",
          "type": "uint256"
        }
      ],
      "stateMutability": "view",
      "type": "function"
    },
    {
      "inputs": [
        {
          "internalType": "uint256",
          "name": "tokenId",
          "type": "uint256"
        },
        {
          "internalType": "uint256",
          "name": "ruleIndex",
          "type": "uint256"
        }
      ],
      "name": "toggleOwnerRule",
      "outputs": [],
      "stateMutability": "nonpayable",
      "type": "function"
    },
    {
      "inputs": [
        {
          "internalType": "uint256",
          "name": "",
          "type": "uint256"
        },
        {
          "internalType": "uint256",
          "name": "",
          "type": "uint256"
        }
      ],
      "name": "tokenOwnerRules",
      "outputs": [
        {
          "internalType": "enum OwnerIntelligenceOracle.OwnerIntelligenceType",
          "name": "ruleType",
          "type": "uint8"
        },
        {
          "internalType": "uint256",
          "name": "tokenId",
          "type": "uint256"
        },
        {
          "internalType": "address",
          "name": "owner",
          "type": "address"
        },
        {
          "internalType": "string",
          "name": "triggerCondition",
          "type": "string"
        },
        {
          "internalType": "string",
          "name": "newMetadataURI",
          "type": "string"
        },
        {
          "internalType": "bytes32",
          "name": "newMetadataHash",
          "type": "bytes32"
        },
        {
          "internalType": "bool",
          "name": "isActive",
          "type": "bool"
        },
        {
          "internalType": "uint256",
          "name": "lastTriggered",
          "type": "uint256"
        },
        {
          "internalType": "uint256",
          "name": "cooldownPeriod",
          "type": "uint256"
        },
        {
          "internalType": "uint256",
          "name": "threshold",
          "type": "uint256"
        }
      ],
      "stateMutability": "view",
      "type": "function"
    },
    {
      "inputs": [
        {
          "internalType": "address",
          "name": "owner_",
          "type": "address"
        }
      ],
      "name": "trackOwnerNFTInteraction",
      "outputs": [],
      "stateMutability": "nonpayable",
      "type": "function"
    },
    {
      "inputs": [
        {
          "internalType": "address",
          "name": "owner_",
          "type": "address"
        }
      ],
      "name": "trackOwnerTransaction",
      "outputs": [],
      "stateMutability": "nonpayable",
      "type": "function"
    },
    {
      "inputs": [
        {
          "internalType": "address",
          "name": "owner_",
          "type": "address"
        },
        {
          "internalType": "string",
          "name": "newLocation",
          "type": "string"
        }
      ],
      "name": "updateOwnerLocation",
      "outputs": [],
      "stateMutability": "nonpayable",
      "type": "function"
    },
    {
      "inputs": [
        {
          "internalType": "address",
          "name": "owner_",
          "type": "address"
        },
        {
          "internalType": "uint256",
          "name": "newReputation",
          "type": "uint256"
        }
      ],
      "name": "updateOwnerReputation",
      "outputs": [],
      "stateMutability": "nonpayable",
      "type": "function"
    },
    {
      "inputs": [
        {
          "internalType": "address",
          "name": "owner_",
          "type": "address"
        },
        {
          "internalType": "uint256",
          "name": "newScore",
          "type": "uint256"
        }
      ],
      "name": "updateOwnerSocialScore",
      "outputs": [],
      "stateMutability": "nonpayable",
      "type": "function"
    },
    {
      "inputs": [
        {
          "internalType": "bytes",
          "name": "proof",
          "type": "bytes"
        }
      ],
      "name": "verifyProof",
      "outputs": [
        {
          "internalType": "bool",
          "name": "",
          "type": "bool"
        }
      ],
      "stateMutability": "view",
      "type": "function"
    }
  ],
  "bytecode": "0x608060405234801561000f575f80fd5b50600780546001600160a01b03191633179055611a7b8061002f5f395ff3fe608060405234801561000f575f80fd5b506004361061011c575f3560e01c8063a3a756e6116100a9578063e108a4cd1161006e578063e108a4cd146102b5578063e13e44fc146102d4578063ea892451146102e7578063f851a44014610306578063fdd374a214610331575f80fd5b8063a3a756e61461023d578063bbc4962f14610250578063d157f7f414610263578063d9ba9fea14610282578063d9c4bf97146102a2575f80fd5b806355c265fe116100ef57806355c265fe1461019f57806370b04b28146101c2578063904aeb42146101d5578063928f5d47146101f45780639a4fd57a1461021d575f80fd5b80631292999a14610120578063349d80111461013557806335f19e9d146101675780633822480e1461017a575b5f80fd5b61013361012e366004611294565b610344565b005b610154610143366004611294565b60026020525f908152604090205481565b6040519081526020015b60405180910390f35b6101336101753660046112b4565b6103c5565b61018d610188366004611294565b610416565b60405161015e9695949392919061131f565b6101b26101ad36600461139d565b61050b565b604051901515815260200161015e565b6101336101d03660046113dc565b610514565b6101546101e3366004611294565b60066020525f908152604090205481565b61020761020236600461142b565b610589565b60405161015e9a9998979695949392919061147f565b61023061022b366004611294565b610710565b60405161015e91906114fa565b61013361024b3660046112b4565b6107a7565b61013361025e36600461150c565b6107f4565b610154610271366004611294565b60016020525f908152604090205481565b6102956102903660046115bf565b6109df565b60405161015e91906115d6565b6101336102b03660046116cd565b610bf1565b6101546102c3366004611294565b60056020525f908152604090205481565b6101336102e236600461142b565b610ca5565b6101546102f5366004611294565b60036020525f908152604090205481565b600754610319906001600160a01b031681565b6040516001600160a01b03909116815260200161015e565b61013361033f366004611294565b610da2565b6007546001600160a01b031633146103775760405162461bcd60e51b815260040161036e906116f7565b60405180910390fd5b6001600160a01b0381165f90815260066020526040812080549161039a83611742565b90915550506001600160a01b0381165f9081526005602052604090204290556103c281610def565b50565b6007546001600160a01b031633146103ef5760405162461bcd60e51b815260040161036e906116f7565b6001600160a01b0382165f90815260016020526040902081905561041282610def565b5050565b6001600160a01b0381165f9081526001602090815260408083205460028352818420546003845282852054600485528386206005865284872054600690965293862054845487968796606096889687969195909491939183906104789061175a565b80601f01602080910402602001604051908101604052809291908181526020018280546104a49061175a565b80156104ef5780601f106104c6576101008083540402835291602001916104ef565b820191905f5260205f20905b8154815290600101906020018083116104d257829003601f168201915b5050505050925095509550955095509550955091939550919395565b60015b92915050565b6007546001600160a01b0316331461053e5760405162461bcd60e51b815260040161036e906116f7565b6001600160a01b0383165f9081526004602052604090206105608284836117f1565b506001600160a01b0383165f90815260056020526040902042905561058483610def565b505050565b5f602052815f5260405f2081815481106105a1575f80fd5b5f9182526020909120600a9091020180546001820154600283015460038401805460ff90941696509194506001600160a01b031692916105e09061175a565b80601f016020809104026020016040519081016040528092919081815260200182805461060c9061175a565b80156106575780601f1061062e57610100808354040283529160200191610657565b820191905f5260205f20905b81548152906001019060200180831161063a57829003601f168201915b50505050509080600401805461066c9061175a565b80601f01602080910402602001604051908101604052809291908181526020018280546106989061175a565b80156106e35780601f106106ba576101008083540402835291602001916106e3565b820191905f5260205f20905b8154815290600101906020018083116106c657829003601f168201915b50505060058401546006850154600786015460088701546009909701549596929560ff909216945092508a565b60046020525f9081526040902080546107289061175a565b80601f01602080910402602001604051908101604052809291908181526020018280546107549061175a565b801561079f5780601f106107765761010080835404028352916020019161079f565b820191905f5260205f20905b81548152906001019060200180831161078257829003601f168201915b505050505081565b6007546001600160a01b031633146107d15760405162461bcd60e51b815260040161036e906116f7565b6001600160a01b0382165f90815260026020526040902081905561041282610def565b6007546001600160a01b0316331461081e5760405162461bcd60e51b815260040161036e906116f7565b5f6040518061014001604052808a600781111561083d5761083d61144b565b81526020018c81526020018b6001600160a01b0316815260200189898080601f0160208091040260200160405190810160405280939291908181526020018383808284375f92019190915250505090825250604080516020601f8a01819004810282018101909252888152918101919089908990819084018382808284375f920182905250938552505050602080830188905260016040808501829052606085018490526080850189905260a09094018790528f83528282529282208054808501825590835291208351600a90920201805493945084939092839160ff19169083600781111561092f5761092f61144b565b02179055506020820151600182015560408201516002820180546001600160a01b0319166001600160a01b039092169190911790556060820151600382019061097890826118ab565b506080820151600482019061098d90826118ab565b5060a0820151600582015560c082015160068201805460ff191691151591909117905560e082015160078201556101008201516008820155610120909101516009909101555050505050505050505050565b5f81815260208181526040808320805482518185028101850190935280835260609492939192909184015b82821015610be6575f84815260209020604080516101408101909152600a84029091018054829060ff166007811115610a4557610a4561144b565b6007811115610a5657610a5661144b565b81526001820154602082015260028201546001600160a01b03166040820152600382018054606090920191610a8a9061175a565b80601f0160208091040260200160405190810160405280929190818152602001828054610ab69061175a565b8015610b015780601f10610ad857610100808354040283529160200191610b01565b820191905f5260205f20905b815481529060010190602001808311610ae457829003601f168201915b50505050508152602001600482018054610b1a9061175a565b80601f0160208091040260200160405190810160405280929190818152602001828054610b469061175a565b8015610b915780601f10610b6857610100808354040283529160200191610b91565b820191905f5260205f20905b815481529060010190602001808311610b7457829003601f168201915b50505091835250506005820154602080830191909152600683015460ff1615156040830152600783015460608301526008830154608083015260099092015460a0909101529082526001929092019101610a0a565b505050509050919050565b5f828152602081905260408120905b8154811015610c9f575f828281548110610c1c57610c1c61196b565b5f9182526020909120600a90910201600681015490915060ff161580610c52575060028101546001600160a01b03858116911614155b15610c5d5750610c97565b80600801548160070154610c71919061197f565b421015610c7e5750610c97565b610c8781610e95565b15610c9557610c9581611001565b505b600101610c00565b50505050565b6007546001600160a01b03163314610ccf5760405162461bcd60e51b815260040161036e906116f7565b5f828152602081905260409020548110610d205760405162461bcd60e51b8152602060048201526012602482015271092dcecc2d8d2c840e4ead8ca40d2dcc8caf60731b604482015260640161036e565b5f828152602081905260409020805482908110610d3f57610d3f61196b565b905f5260205f2090600a02016006015f9054906101000a900460ff16155f808481526020019081526020015f208281548110610d7d57610d7d61196b565b5f9182526020909120600a90910201600601805460ff19169115159190911790555050565b6007546001600160a01b03163314610dcc5760405162461bcd60e51b815260040161036e906116f7565b6001600160a01b0381165f90815260036020526040812080549161039a83611742565b604080516080808252600e908201526d4f574e45525f414354495649545960901b60a082015260c0602082018190526017908201527f4f776e657220616374697669747920646574656374656400000000000000000060e08201525f9181018290524260608201526001600160a01b03831691907f835a6d0a6c7a83f9d84f3992330163718aec3d526490278be83d68159c7c2e3990610100015b60405180910390a350565b5f80825460ff166007811115610ead57610ead61144b565b03610eda575060098101546002909101546001600160a01b03165f90815260016020526040902054101590565b6004825460ff166007811115610ef257610ef261144b565b03610f21575060098101546002918201546001600160a01b03165f908152602092909252604090912054101590565b6002825460ff166007811115610f3957610f3961144b565b03610f66575060098101546002909101546001600160a01b03165f90815260036020526040902054101590565b6005825460ff166007811115610f7e57610f7e61144b565b03610fab575060098101546002909101546001600160a01b03165f90815260066020526040902054101590565b6007825460ff166007811115610fc357610fc361144b565b03610ffa5760028201546001600160a01b03165f908152600560205260409020546201518090610ff39042611992565b1092915050565b505f919050565b4260078201556002810154600182015482546001600160a01b03909216917f835a6d0a6c7a83f9d84f3992330163718aec3d526490278be83d68159c7c2e399061104d9060ff16611066565b6005850154604051610e8a9291600388019142906119a5565b60605f82600781111561107b5761107b61144b565b036110ab57505060408051808201909152600f81526e534f4349414c5f414354495649545960881b602082015290565b60048260078111156110bf576110bf61144b565b036110f057505060408051808201909152601081526f52455055544154494f4e5f53434f524560801b602082015290565b60028260078111156111045761110461144b565b036111385750506040805180820190915260138152725452414e53414354494f4e5f484953544f525960681b602082015290565b600382600781111561114c5761114c61144b565b0361117b57505060408051808201909152600e81526d1313d0d0551253d397d09054d15160921b602082015290565b600582600781111561118f5761118f61144b565b036111c4575050604080518082019091526014815273494e544552414354494f4e5f5041545445524e5360601b602082015290565b60068260078111156111d8576111d861144b565b0361120557505060408051808201909152600c81526b414348494556454d454e545360a01b602082015290565b60078260078111156112195761121961144b565b0361124e57505060408051808201909152601481527310d3d353555392551657d15391d051d15351539560621b602082015290565b505060408051808201909152600f81526e50524f46494c455f4348414e47455360881b602082015290565b80356001600160a01b038116811461128f575f80fd5b919050565b5f602082840312156112a4575f80fd5b6112ad82611279565b9392505050565b5f80604083850312156112c5575f80fd5b6112ce83611279565b946020939093013593505050565b5f81518084525f5b81811015611300576020818501810151868301820152016112e4565b505f602082860101526020601f19601f83011685010191505092915050565b86815285602082015284604082015260c060608201525f61134360c08301866112dc565b60808301949094525060a00152949350505050565b5f8083601f840112611368575f80fd5b50813567ffffffffffffffff81111561137f575f80fd5b602083019150836020828501011115611396575f80fd5b9250929050565b5f80602083850312156113ae575f80fd5b823567ffffffffffffffff8111156113c4575f80fd5b6113d085828601611358565b90969095509350505050565b5f805f604084860312156113ee575f80fd5b6113f784611279565b9250602084013567ffffffffffffffff811115611412575f80fd5b61141e86828701611358565b9497909650939450505050565b5f806040838503121561143c575f80fd5b50508035926020909101359150565b634e487b7160e01b5f52602160045260245ffd5b6008811061147b57634e487b7160e01b5f52602160045260245ffd5b9052565b5f61014061148d838e61145f565b602083018c90526001600160a01b038b166040840152606083018190526114b68184018b6112dc565b905082810360808401526114ca818a6112dc565b60a0840198909852505093151560c085015260e08401929092526101008301526101209091015295945050505050565b602081525f6112ad60208301846112dc565b5f805f805f805f805f806101008b8d031215611526575f80fd5b8a35995061153660208c01611279565b985060408b013560088110611549575f80fd5b975060608b013567ffffffffffffffff80821115611565575f80fd5b6115718e838f01611358565b909950975060808d0135915080821115611589575f80fd5b506115968d828e01611358565b9b9e9a9d50989b979a9699969760a08101359760c0820135975060e09091013595509350505050565b5f602082840312156115cf575f80fd5b5035919050565b5f60208083018184528085518083526040925060408601915060408160051b8701018488015f5b838110156116bf57603f19898403018552815161014061161e85835161145f565b88820151858a0152878201516001600160a01b03168886015260608083015181870183905261164f838801826112dc565b925050506080808301518683038288015261166a83826112dc565b9250505060a080830151818701525060c08083015161168c8288018215159052565b505060e08281015190860152610100808301519086015261012091820151919094015293860193908601906001016115fd565b509098975050505050505050565b5f80604083850312156116de575f80fd5b823591506116ee60208401611279565b90509250929050565b60208082526018908201527f4f6e6c792061646d696e2063616e2063616c6c20746869730000000000000000604082015260600190565b634e487b7160e01b5f52601160045260245ffd5b5f600182016117535761175361172e565b5060010190565b600181811c9082168061176e57607f821691505b60208210810361178c57634e487b7160e01b5f52602260045260245ffd5b50919050565b634e487b7160e01b5f52604160045260245ffd5b601f82111561058457805f5260205f20601f840160051c810160208510156117cb5750805b601f840160051c820191505b818110156117ea575f81556001016117d7565b5050505050565b67ffffffffffffffff83111561180957611809611792565b61181d83611817835461175a565b836117a6565b5f601f84116001811461184e575f85156118375750838201355b5f19600387901b1c1916600186901b1783556117ea565b5f83815260208120601f198716915b8281101561187d578685013582556020948501946001909201910161185d565b5086821015611899575f1960f88860031b161c19848701351681555b505060018560011b0183555050505050565b815167ffffffffffffffff8111156118c5576118c5611792565b6118d9816118d3845461175a565b846117a6565b602080601f83116001811461190c575f84156118f55750858301515b5f19600386901b1c1916600185901b178555611963565b5f85815260208120601f198616915b8281101561193a5788860151825594840194600190910190840161191b565b508582101561195757878501515f19600388901b60f8161c191681555b505060018460011b0185555b505050505050565b634e487b7160e01b5f52603260045260245ffd5b8082018082111561050e5761050e61172e565b8181038181111561050e5761050e61172e565b608081525f6119b760808301876112dc565b6020838203818501525f87546119cc8161175a565b808552600182811680156119e75760018114611a0157611a2c565b60ff1984168787015282151560051b870186019450611a2c565b8b5f52855f205f5b84811015611a24578154898201890152908301908701611a09565b880187019550505b505050506040850196909652505050606001529291505056fea26469706673582212208f3e136150cc44545ec3797f87403e4aae79c00501710aeae54dff68fa94e5a664736f6c63430008180033",
  "linkReferences": {},
  "deployedLinkReferences": {},
  "immutableReferences": {},
  "inputSourceName": "project/contracts/OwnerIntelligenceOracle.sol",
  "buildInfoId": "solc-0_8_24-ab0f40d02aae0ad4567c7f2b26ea9571bb3870df"
}