{
  "_format": "hh3-artifact-1",
  "contractName": "ReverseRegistrar",
  "sourceName": "contracts/ReverseRegistrar.sol",
  "abi": [
    {
      "inputs": [
        {
          "internalType": "contract Name0gRegistry",
          "name": "_registry",
          "type": "address"
        },
        {
          "internalType": "contract Name0gSimpleResolver",
          "name": "_resolver",
          "type": "address"
        }
      ],
      "stateMutability": "nonpayable",
      "type": "constructor"
    },
    {
      "anonymous": false,
      "inputs": [
        {
          "indexed": true,
          "internalType": "address",
          "name": "claimant",
          "type": "address"
        },
        {
          "indexed": true,
          "internalType": "bytes32",
          "name": "node",
          "type": "bytes32"
        },
        {
          "indexed": false,
          "internalType": "string",
          "name": "name",
          "type": "string"
        }
      ],
      "name": "ReverseClaimed",
      "type": "event"
    },
    {
      "inputs": [],
      "name": "ADDR_REVERSE_LABEL",
      "outputs": [
        {
          "internalType": "bytes32",
          "name": "",
          "type": "bytes32"
        }
      ],
      "stateMutability": "view",
      "type": "function"
    },
    {
      "inputs": [],
      "name": "REVERSE_NODE",
      "outputs": [
        {
          "internalType": "bytes32",
          "name": "",
          "type": "bytes32"
        }
      ],
      "stateMutability": "view",
      "type": "function"
    },
    {
      "inputs": [
        {
          "internalType": "address",
          "name": "account",
          "type": "address"
        }
      ],
      "name": "node",
      "outputs": [
        {
          "internalType": "bytes32",
          "name": "",
          "type": "bytes32"
        }
      ],
      "stateMutability": "pure",
      "type": "function"
    },
    {
      "inputs": [],
      "name": "registry",
      "outputs": [
        {
          "internalType": "contract Name0gRegistry",
          "name": "",
          "type": "address"
        }
      ],
      "stateMutability": "view",
      "type": "function"
    },
    {
      "inputs": [],
      "name": "resolver",
      "outputs": [
        {
          "internalType": "contract Name0gSimpleResolver",
          "name": "",
          "type": "address"
        }
      ],
      "stateMutability": "view",
      "type": "function"
    },
    {
      "inputs": [
        {
          "internalType": "string",
          "name": "name_",
          "type": "string"
        }
      ],
      "name": "setName",
      "outputs": [
        {
          "internalType": "bytes32",
          "name": "",
          "type": "bytes32"
        }
      ],
      "stateMutability": "nonpayable",
      "type": "function"
    }
  ],
  "bytecode": "0x60c060405234801561000f575f80fd5b50604051610a3e380380610a3e83398101604081905261002e9161005c565b6001600160a01b039182166080521660a052610094565b6001600160a01b0381168114610059575f80fd5b50565b5f806040838503121561006d575f80fd5b825161007881610045565b602084015190925061008981610045565b809150509250929050565b60805160a05161095a6100e45f395f818160690152818161045c0152818161053d01526105d401525f818160c3015281816102ec0152818161037d015281816104860152610565015261095a5ff3fe608060405234801561000f575f80fd5b5060043610610060575f3560e01c806304f3bcec146100645780631b2392d1146100a85780637b103999146100be578063af91e74c146100e5578063bffbe61c146100ed578063c47f002714610100575b5f80fd5b61008b7f000000000000000000000000000000000000000000000000000000000000000081565b6040516001600160a01b0390911681526020015b60405180910390f35b6100b0610113565b60405190815260200161009f565b61008b7f000000000000000000000000000000000000000000000000000000000000000081565b6100b0610140565b6100b06100fb3660046107ad565b610185565b6100b061010e3660046107cf565b61022b565b6040516330b2323960e11b60208201526024015b6040516020818303038152906040528051906020012081565b6040516330b2323960e11b60208201525f9060240160405160208183030381529060405280519060200120604051602001610127929190918252602082015260400190565b5f806101938360601b610688565b8051906020012090505f801b6040516020016101b9906330b2323960e11b815260040190565b604051602081830303815290604052805190602001206040516020016101e9929190918252602082015260400190565b60408051601f19818403018152828252805160209182012090830152810182905260600160405160208183030381529060405280519060200120915050919050565b5f806102393360601b610688565b8051906020012090505f805f1b604051602001610260906330b2323960e11b815260040190565b60405160208183030381529060405280519060200120604051602001610290929190918252602082015260400190565b60408051601f19818403018152828252805160209182012090830152810183905260600160408051808303601f1901815290829052805160209091012063fb8ad6ff60e01b825260048201819052915033906001600160a01b037f0000000000000000000000000000000000000000000000000000000000000000169063fb8ad6ff90602401602060405180830381865afa158015610331573d5f803e3d5ffd5b505050506040513d601f19601f82011682018060405250810190610355919061083b565b6001600160a01b03161461045a576040516330b2323960e11b60208201526001600160a01b037f000000000000000000000000000000000000000000000000000000000000000016906306ab5923905f90602401604051602081830303815290604052805190602001206040516020016103d9929190918252602082015260400190565b60408051601f198184030181529082905280516020909101206001600160e01b031960e084901b1682526004820152602481018590523360448201526064016020604051808303815f875af1158015610434573d5f803e3d5ffd5b505050506040513d601f19601f820116820180604052508101906104589190610856565b505b7f00000000000000000000000000000000000000000000000000000000000000006001600160a01b03167f00000000000000000000000000000000000000000000000000000000000000006001600160a01b031663c3a7bb90836040518263ffffffff1660e01b81526004016104d291815260200190565b602060405180830381865afa1580156104ed573d5f803e3d5ffd5b505050506040513d601f19601f82011682018060405250810190610511919061083b565b6001600160a01b0316146105bd57604051630c4b7b8560e11b8152600481018290526001600160a01b037f0000000000000000000000000000000000000000000000000000000000000000811660248301527f00000000000000000000000000000000000000000000000000000000000000001690631896f70a906044015f604051808303815f87803b1580156105a6575f80fd5b505af11580156105b8573d5f803e3d5ffd5b505050505b604051637737221360e01b81526001600160a01b037f0000000000000000000000000000000000000000000000000000000000000000169063773722139061060d90849089908990600401610895565b5f604051808303815f87803b158015610624575f80fd5b505af1158015610636573d5f803e3d5ffd5b5050505080336001600160a01b03167fcd2f88aafd90b97e8cd5b5a74e4233f464504bb74e72cb3949f77f29cd258fbe87876040516106769291906108b7565b60405180910390a39150505b92915050565b60408051602880825260608281019093526f181899199a1a9b1b9c1cb0b131b232b360811b915f916020820181803683370190505090505f5b601481101561078e575f8582601481106106dd576106dd6108d2565b1a905083600482901c60ff16601081106106f9576106f96108d2565b1a60f81b836107098460026108fa565b81518110610719576107196108d2565b60200101906001600160f81b03191690815f1a90535083600f821660108110610744576107446108d2565b1a60f81b836107548460026108fa565b61075f906001610911565b8151811061076f5761076f6108d2565b60200101906001600160f81b03191690815f1a905350506001016106c1565b509392505050565b6001600160a01b03811681146107aa575f80fd5b50565b5f602082840312156107bd575f80fd5b81356107c881610796565b9392505050565b5f80602083850312156107e0575f80fd5b823567ffffffffffffffff808211156107f7575f80fd5b818501915085601f83011261080a575f80fd5b813581811115610818575f80fd5b866020828501011115610829575f80fd5b60209290920196919550909350505050565b5f6020828403121561084b575f80fd5b81516107c881610796565b5f60208284031215610866575f80fd5b5051919050565b81835281816020850137505f828201602090810191909152601f909101601f19169091010190565b838152604060208201525f6108ae60408301848661086d565b95945050505050565b602081525f6108ca60208301848661086d565b949350505050565b634e487b7160e01b5f52603260045260245ffd5b634e487b7160e01b5f52601160045260245ffd5b8082028115828204841417610682576106826108e6565b80820180821115610682576106826108e656fea26469706673582212205ad800dd882c3db4644430633a8975997d69fa72de7d8fd5b323743f2fa8757264736f6c63430008180033",
  "linkReferences": {},
  "deployedLinkReferences": {},
  "immutableReferences": {
    "9636": [
      {
        "length": 32,
        "start": 195
      },
      {
        "length": 32,
        "start": 748
      },
      {
        "length": 32,
        "start": 893
      },
      {
        "length": 32,
        "start": 1158
      },
      {
        "length": 32,
        "start": 1381
      }
    ],
    "9639": [
      {
        "length": 32,
        "start": 105
      },
      {
        "length": 32,
        "start": 1116
      },
      {
        "length": 32,
        "start": 1341
      },
      {
        "length": 32,
        "start": 1492
      }
    ]
  },
  "inputSourceName": "project/contracts/ReverseRegistrar.sol",
  "buildInfoId": "solc-0_8_24-ab0f40d02aae0ad4567c7f2b26ea9571bb3870df"
}